:020000040800F2
:10400000004500204541000851A300084F8D0008DD
:10401000E9A100086D5700086DF6000800000000D7
:10402000000000000000000000000000E1DD0008CA
:10403000E176000800000000AB410008FDEF000839
:104040005F4100085F4100085F41000815CE00088D
:104050005F4100085F4100085F4100085F410008C0
:10406000AD7700085F4100085F4100085F4100082C
:104070005F4100085F4100085F4100085F410008A0
:104080005F4100085F4100085F4100085F41000890
:10409000EDF500085F4100085F4100085F4100083E
:1040A0005F4100085F4100085F4100085F41000870
:1040B0005F4100085F4100085F4100085F41000860
:1040C0005F4100085F4100085F4100085F41000850
:1040D0005F410008F9F000085F4100085F410008F7
:1040E0007D7700085F4100085F4100085F410008DC
:1040F0005F4100085F4100085F4100085F41000820
:104100005F4100085F4100085F4100085F4100080F
:104110005F4100085F4100085F4100085F410008FF
:104120005F4100085F4100085F4100085F410008EF
:10413000DFF80CD000F04AFD0048004731230108A9
:10414000004500200648804706480047FEE7FEE796
:10415000FEE7FEE7FEE7FEE7FEE7FEE7FEE7FEE737
:1041600079F0000831410008EFF3108072B6704713
:1041700080F3108870471D484FF0FF010170002048
:1041800080F309881A48012101701A484FF08051C4
:10419000016062B6FEE717484FF08051016070473A
:1041A00014484FF080510160704772B6EFF30980F8
:1041B00028B1203880E8F00F0F490968086000B581
:1041C0000E4880475DF804EB0D480E490A780270EE
:1041D00009480D490A680260106890E8F00F203025
:1041E00080F309884EF0040E62B6704722ED00E0BD
:1041F0009A08002004ED00E0A00800203DAF000870
:104200008F08002090080020A808002072B6704790
:1042100062B67047EFF3108072B6704780F3108873
:104220007047B0FA80F0704790FAA0F0704730BF46
:10423000704720BF704700000048704714690108AC
:1042400010B50446FFF7F8FF0068005D00F00100BC
:1042500010BDA0F16101192900D82038704740EA4B
:1042600001039B0703D009E008C9121F08C0042AF4
:10427000FAD203E011F8013B00F8013B521EF9D2DB
:104280007047D2B201E000F8012B491EFBD2704703
:104290000022F6E710B513460A4604461946FFF712
:1042A000F0FF204610BD421C10F8011B0029FBD175
:1042B000801A704770B506460BF0CAFD04680546C3
:1042C0000A220021304600F09DFB2C6070BDF0B446
:1042D00080EA0102D40F4200B2EB410F02D2024643
:1042E000084611464A0042D0C30DDDB2C1F3C752A1
:1042F000AD1A202D35DAC1F3160141F4000204B1E4
:104300005242C5F1200602FA06F12A411044B3EBED
:10431000D05F23D0C4B1012DA0EBC35009DCF0BCA9
:104320004FF0004202EAC352DBB200F5000000F099
:10433000AABB400000F1807000EBC350A0F1807078
:1043400040EAD170490009E0490841EAC071A0EB98
:10435000C35000F50000400800EBC350F0BC00F073
:1043600089BB6142012202EB4101001BF6E7F0BC70
:10437000704781F00041AAE780F00040A7E780EA9B
:10438000010210B502F00043400022D04A001FD0C5
:10439000010E01EB1261C0F35600C2F3560240F465
:1043A000000042F40002A0FB022000047F39140444
:1043B00000D0401C50EA124001D44000491EC2B255
:1043C0000C0604EBD010401C4008802A02D003E009
:1043D000002010BD20F00100002900DA0020184361
:1043E00010BD30B480EA010202F0004530F0004216
:1043F00021F0004013D090B1C30DD40DC2F31601CB
:10440000C0F31600E41A41F4000140F400027D34C8
:10441000914201D3641C00E04900002C02DA30BC58
:10442000002070474FF400000023914201D3891A05
:10443000034340084FEA4101F7D151B1914202D103
:104440004FF0004105E002D24FF0010101E06FF0B2
:10445000010103EBC450284430BC00F00BBB2DE934
:10446000FE4F804681EA0300C00F0C46009021F009
:10447000004123F00045B8EB0200A94105D24046B7
:10448000214690461C460B46024623F0004010434E
:1044900047D0270DC7F30A00C3F30A510290401A10
:1044A000019040286BDAC3F3130040F4801B00989E
:1044B000924620B10023D2EB030A63EB0B0B019869
:1044C0005946C0F14002504600F02DFA06460D460E
:1044D00050465946019A00F035FA10EB0800614148
:1044E000002487EA115284EAE7731A4340D0009A05
:1044F00062B3019A012A4FEA075215DC001B61EBF7
:1045000002014FF0004202EA0752CDE90042001CCE
:1045100041F5801132462B4600F0F2FA03B0BDE8B7
:10452000F08F40462146F9E7001B61EB0201001CB9
:1045300041F5801300185B412018A2F5001747EBE6
:10454000030140EAD570B6196D4111E06D084FEADC
:10455000360645EAC0754FEA0752001B61EB0201BF
:10456000001C41F5801149084FEA30000019514103
:1045700032462B4603B0BDE8F04F00F0B2BA0098C7
:10458000012240000023D0EB020263EBE0730098AD
:1045900021464FEAE074B8EB000061EB0401E9E763
:1045A00083F000435BE781F0004158E72DE9FE4FBF
:1045B00081EA030404F0004421F0004100944FF02C
:1045C000000B23F0004350EA01045ED052EA0304DA
:1045D0005BD0C3F30A54C1F30A552C44A4F2F3345C
:1045E0000194A0FB0254C1F3130141F48011C3F301
:1045F000130343F4801301FB024400FB034E840ABF
:10460000970A44EA815447EA8357A4FB0768029556
:104610008D0A05FB07854FEA932C04FB0C542705F4
:10462000029D4FEA065847EA1637B5EB08056EEBD0
:10463000070C870E920E47EA811742EA8312A7FB06
:104640000201B6EB0B0164EB00042B0D43EA0C33C3
:104650005E1844EB1C50DA465146E7FB0201C5F3F5
:1046600013044FEA0B3343EA14534FEA0432019C1C
:1046700043EA0603A4F10C040294009CCDE900B4C3
:1046800000F03EFA03B0BDE8F08F00200146F9E7E4
:104690002DE9F04D81EA030404F0004B21F00045C0
:1046A00014464FF0000A23F0004150EA050220D0E2
:1046B00054EA01021DD0C5F30A570246C5F313039D
:1046C000C1F31300C1F30A5640F4801543F480137C
:1046D000A7EB0608101BD64608F2FD3873EB050061
:1046E00002D308F1010801E092185B41B8F1000F14
:1046F00003DA00200146BDE8F08D00204FF4801160
:10470000064684460EE0171B73EB050705D3121B04
:1047100063EB050306434CEA010C49084FEA3000FD
:1047200092185B4150EA0107EDD152EA030012D022
:1047300082EA040083EA0501084305D0101BAB415F
:1047400006D20122002306E000224FF0004302E0DF
:104750006FF0010253101AEB06004CEB085110EBFE
:104760000A0041EB0B01BDE8F04D00F0BAB9C10FF2
:1047700080EAE0700844CA079623002100F083B95C
:1047800096230022114600F07EB920F00040C10DB2
:10479000C0F3160040F400007F2901DA00207047C2
:1047A000962903DCC1F19601C840704796398840CC
:1047B000704700F0004230F000400AD0C10D01F512
:1047C0006071C0F3160042EA0151C208400711436C
:1047D000704700200146704730B5041E71F1000497
:1047E00004DB4FF00044404264EB0101141E73F1FE
:1047F000000405DB1C464FF00043524263EB040308
:104800008B4208BF824230BD30B5041E71F10004F6
:1048100004DB4FF00044404264EB0101141E73F1CD
:10482000000405DB1C464FF00043524263EB0403D7
:10483000994208BF904230BD01F0004330B421F0EE
:10484000004150EA010206D00A0DA2F56072C1F3E0
:104850001301002A02DC30BC00207047440F44EAF8
:10486000C104C100E01830BC00EBC25000F002B936
:10487000002801DBC0F10040002901DBC1F100414B
:1048800081427047002801DBC0F10040002901DBB4
:10489000C1F100418842704730B50B460146002007
:1048A0002022012409E021FA02F59D4205D303FAF2
:1048B00002F5491B04FA02F52844151EA2F1010273
:1048C000F1DC30BD2DE9F05F0546002092469B46A5
:1048D00088460646814640241BE028464146474616
:1048E000224600F085F953465A46C01A914110D32A
:1048F00011461846224600F016F82D1A67EB0108FB
:104900004F4622460120002100F00DF817EB000968
:104910004E41201EA4F10104DFDC484631462A4600
:104920004346BDE8F09F202A04DB203A00FA02F15A
:10493000002070479140C2F1200320FA03F319438D
:1049400090407047202A06DBCB17203A41FA02F04C
:1049500043EAE07306E041FA02F3D040C2F12002DC
:1049600091400843194670470FB4002300B589B041
:104970000CA900910B996FF00042CB601E4B06937F
:104980001E4B07930423CDE901321D4A08920246CB
:104990006B46002000F0BCF909B05DF814FB70B55F
:1049A00086B006464FF0FF300091CDE901010020AE
:1049B00015460C4604903246694604A8FFF7D4FF1A
:1049C00003460498211825B108B10A4600E02246A2
:1049D0002A6000280DD0002B02DD0098884208D004
:1049E000081B0094CDE901043246694604A8FFF78C
:1049F000BBFF06B070BD0000494F0008674F0008BC
:104A0000414200082DE9F04791460F468046044692
:104A1000002614F8015B2DB1FFF70EFC0068405D25
:104A2000C007F6D12B2D02D02D2D18D0641E4A467A
:104A30003946204600F0A8FA27B13968A14201D1D1
:104A4000C7F8008071054FF002040BD540420028E2
:104A500003DD0BF0FDF90460A007BDE8F08746F424
:104A60008066E4E70028F8DA0BF0F2F904606FF0F2
:104A70000040F2E70029A8BF7047401C490008BF6A
:104A800020F00100704710B4B0FA80FC00FA0CF07E
:104A900050EA010404BF10BC704749B1CCF12004B6
:104AA00021FA04F411FA0CF118BF01212143084343
:104AB000A3EB0C01CB1D4FEA00614FEA102042BF6F
:104AC000002010BC704700EBC35010440029A4BF65
:104AD00010BC7047401C490008BF20F0010010BC0A
:104AE000704710B5141E73F1000408DA401C41F140
:104AF000000192185B411A4301D120F0010010BD62
:104B00002DE9F04D92469B4611B1B1FA81F202E0D7
:104B1000B0FA80F220329046FFF705FF04460F46B8
:104B200040EA0A0041EA0B0153465A46084313D0B3
:104B3000114653EA010019D0C8F14002504600F076
:104B400057F805460E46504659464246FFF7EBFEDB
:104B5000084305D0012004E020463946BDE8F08D29
:104B60000020054346EAE0762C4337430A98630564
:104B7000E40AA0EB08000022FD0A44EA47540A3088
:104B800002D500200146E9E7010510196941DDE978
:104B9000084500196941BDE8F04DA2E7C1F30A528A
:104BA000C1F3130140F2FF3341F480119A4202DA5B
:104BB00000200146704740F233439A42A2F233424A
:104BC00002DC524200F014B8FFF7ADBE064C074DB0
:104BD00006E0E06840F0010394E8070098471034CD
:104BE000AC42F6D3FFF7A8FA406A0108606A0108F0
:104BF000202A04DB203A21FA02F00021704721FA32
:104C000002F3D040C2F12002914008431946704798
:104C10002DE9FF4F087881B09946FF2805D0491C3F
:104C20002D2804D00024002308E000230BE00124F9
:104C3000F9E703EB830300EB4303491C0878FF28E3
:104C4000F7D104B15B4200200090147801462D2C6E
:104C500001D02B2C04D1521C2D2C12D000240094F6
:104C600000251678FF2E0ED00A24A0FB04C801FBF5
:104C70000481002700FB0711521C16EB0C00694150
:104C8000EFE70124EBE7994450EA01020ED000243B
:104C9000AA4D2646DFF8A88200F0D3F982468B465B
:104CA000B9F1000009DAC9F100071BE00198002101
:104CB000C0E9001105B0BDE8F08F074612E0F80723
:104CC00007D022462B4630464146FFF76FFC06468A
:104CD000884622462B4610461946FFF767FC0446D5
:104CE0000D467F10002FEAD1B9F1000F324643463E
:104CF0005046594602DAFFF7CBFC01E0FFF756FCBD
:104D0000009A0AB181F00041019AC2E90001D1E79D
:104D10002DE9FF4F1F468DB0D7E901464FF0FF3810
:104D20002E2045464FF000090B90B9696D1C0E9876
:104D30008847396A824688470028F6D1BAF1FF3F92
:104D40000AD024F4D064002E11DDBAF12B0F08D064
:104D5000BAF12D0F0BD102E0404611B0ABE744F49D
:104D60008064B9696D1C0E9888478246761E694634
:104D7000600501D52D2000E02B208DF8000001F109
:104D8000010B0DF1200809E0B9696D1C0E988847E8
:104D900082460F9844F40074761E0560002E02DDF2
:104DA000BAF1300FF0D00B998A453ED144F080041F
:104DB00006E00F99681CA9F1010944F40074086029
:104DC000B9696D1C761E0E98884782463028F0D04F
:104DD0002BE00B998A4505D1200603D444F08004CA
:104DE000761E18E050460BF005F908B30DF11301DB
:104DF000761E44F400748B4508D2AAF130000BF8FB
:104E0000010B200607D5A9F1010003E0200602D41A
:104E100009F101008146A00502D50F99681C0860C0
:104E2000B9696D1C0E9888478246002ED1DC53E08C
:104E3000002E51DDBAF1650F02D0BAF1450F4BD10A
:104E4000A00549D5B9696D1C24F44074761E0E98EE
:104E500088478246002E0CDD2B2804D0BAF12D0F96
:104E600007D144F48074B9696D1C0E988847824656
:104E7000761EE00501D52D2100E02B2108F8011B4D
:104E8000CDF82C8021E00DF12901761E44F4007448
:104E900088450CD2AAF1300010F0FF0088F800001D
:104EA00002D10B99884509D908F1010806E0E0050F
:104EB00001D5244801E042F20F708146B9696D1CAA
:104EC0000E98884782460F980560002E04DD5046F4
:104ED0000BF090F80028D6D1F9690E988847FF208A
:104EE0008BF8000088F800000020069007904B46E1
:104EF0006A4608A906A8FFF78BFEA00502D46FF04A
:104F000001002AE714F0240F0AD0E00714D1DDE9EC
:104F100006123868031D3B600068C0E900120BE010
:104F2000DDE90601FFF788FC0146E00704D1386897
:104F3000021D3A600068016028460EE70000244028
:104F40000000F03FF1D8FFFF426842B1016811F85C
:104F5000013B23B1521EC0E90012184670470121DF
:104F6000C160881E704742685AB1C368016843B97E
:104F700083688B4205D0491E521CC0E900120020F4
:104F800070474FF0FF3070472DE9F05F82460078A0
:104F9000002715468B460AF10104B946302801D096
:104FA0009DB113E014F8010B0127782803D058288D
:104FB00001D045B10AE00DB1102D07D10027102511
:104FC00014F8010B02E0082500E00A250026B0468F
:104FD0000EE005FB080005FB06F1012701EB10467A
:104FE0001FFA80F8B6F5803F00D3B94614F8010BDC
:104FF000294600F018F80028EBDABBF1000F05D0C5
:105000000FB1641E00E05446CBF80040B9F1000F28
:1050100006D00AF01DFF02210160C81EBDE8F09F06
:1050200048EA0640FAE73A2800D2303820F0200259
:10503000412A01D3A2F13700884201D34FF0FF305B
:1050400070470EB540F2334202920022CDE90022B1
:105050001346FFF755FD03B000BD70B58C1810F86E
:10506000015B15F0070301D110F8013B2A1106D1AD
:1050700010F8012B03E010F8016B01F8016B5B1EC7
:10508000F9D12B0705D40023521E0DD401F8013BA2
:10509000FAE710F8013BCB1A921C03E013F8015B0E
:1050A00001F8015B521EF9D5A142D8D3002070BD92
:1050B00038B5044601216C2007F058FC1B20ADF8E0
:1050C000000010208DF8030003208DF802006946CF
:1050D0003A4802F011FD4FF62000ADF80000102014
:1050E0008DF8030003208DF802006946344802F071
:1050F00003FD0420ADF8000003208DF80200042019
:105100008DF8030069462D4802F0F6FC4FF480400C
:10511000ADF8000003208DF8020004208DF8030094
:105120006946274802F0E8FC2120ADF80000102075
:105130008DF8030003208DF802006946214802F033
:10514000DBFC4FF48070ADF8000010208DF80300F8
:1051500003208DF8020069461A4802F0CDFC4FF496
:105160001060ADF8000010208DF8030003208DF8CA
:1051700002006946144802F0BFFC4FF480711148E8
:1051800002F097FD4FF400610D4802F094FD1021EC
:105190000A4802F090FD4FF40051094802F089FDE1
:1051A0000221064802F085FD4FF48051044802F0C8
:1051B00082FD0121014802F07EFD38BD000801405A
:1051C000000C014000180140001401402DE9F05F7F
:1051D00005464FF0000B0120384908700DB98526AF
:1051E00000E0B5264FF48051354802F062FD002002
:1051F00034490870782002F084FA304600F0E2F872
:105200008B2000F0DFF8304600F0DCF88B2000F057
:10521000D9F8782002F075FA4FF48051284802F04E
:105220004AFD082001F05AFF4FF48051244802F053
:1052300040FD782002F065FA304600F0C3F8804661
:105240008B2000F0BFF88146304600F0BBF80746DF
:105250008B2000F0B7F804465DB9052F05D18A2CE4
:1052600003D10020184908700EE00120164908708B
:105270000AE0352F05D18A2C03D10020124908708D
:1052800002E0012010490870782002F03AFA4FF449
:1052900080510B4802F00FFD09EB082A09480078FD
:1052A00028B1012008490870002006490870002034
:1052B000024908705046BDE8F09F00002D01002013
:1052C000000C014053000020280100202DE9F05F70
:1052D00005464FF0000B0120364908700DB98526B0
:1052E00000E0B5260121344802F0E3FC00203349F8
:1052F0000870782002F005FA304600F0A3F88B2001
:1053000000F0A0F8304600F09DF88B2000F09AF8ED
:10531000782002F0F6F90121274802F0CCFC0820A1
:1053200001F0DCFE0121244802F0C3FC782002F0E9
:10533000E8F9304600F086F880468B2000F082F8CD
:105340008146304600F07EF807468B2000F07AF860
:1053500004465DB9052F05D18A2C03D100201849D8
:1053600008700EE00120164908700AE0352F05D1BB
:105370008A2C03D100201249087002E00120104954
:105380000870782002F0BDF901210B4802F093FC6F
:1053900009EB082A0948007828B10120084908705B
:1053A0000020064908700020024908705046BDE8F8
:1053B000F09F00002D010020000801405300002054
:1053C000280100202DE9F04105462E46002731E056
:1053D0006006040E06F0800028B14FF40041184822
:1053E00002F069FC04E04FF40041154802F061FC52
:1053F000012001F073FE4FF40051114802F05BFCF4
:10540000012001F06BFE4FF480410D4802F048FC92
:1054100008B144F00104012001F060FE4FF4005196
:10542000074802F046FC012001F058FE7006060E07
:10543000781CC7B2082FCBDB2046BDE8F081000006
:10544000000C01402DE9F04105462E4600272CE0D6
:105450006006040E06F0800020B10821154802F015
:105460002AFC03E00821134802F023FC012001F08C
:1054700035FE02210F4802F01EFC012001F02EFE35
:1054800004210C4802F00CFC08B144F00104012096
:1054900001F024FE0221074802F00BFC012001F07C
:1054A0001DFE7006060E781CC7B2082FD0DB204602
:1054B000BDE8F0810008014010B54FF4805111485B
:1054C00002F0F9FB0121104802F0F5FB012001F088
:1054D00005FE4FF400510B4802F0EBFB02210A4895
:1054E00002F0E7FB012001F0F9FD4FF4004105480F
:1054F00002F0DFFB0821044802F0DBFB012001F091
:10550000EDFD10BD000C01400008014000B587B062
:105510009DF818000690032000214FF480720A4B7A
:10552000CDE90132CDE9031008200346074A009077
:10553000074805F057FB069006AA06A1082005F0CB
:10554000BBFB07B000BD0000502300204C2700200B
:10555000754B01085461736B204D656173757265FD
:1055600000000000704710B5FFF7D0FF00F01CF8F6
:1055700010BD10B50446204605F02EFF10BD704743
:1055800005F074FF05F0AEFAFFF7EDFF00BFFF2056
:1055900005F076FCFBE7704710B505F025FF10BD60
:1055A00010B505F039FF10BD08B59DF8000000905A
:1055B0000623244A0021244805F0C0FA00906A46D8
:1055C00022A1062005F078FB0523234A0021234869
:1055D00005F0B4FA00906A4621A1052005F06CFBA5
:1055E0000723234A0021234805F0A8FA00906A46C1
:1055F00021A1072005F060FB0223224A0021224856
:1056000005F09CFA00906A4620A1052005F054FBA5
:105610000323234A0021234805F090FA00906A46AC
:1056200021A1032005F048FB0423224A002122483F
:1056300005F084FA00906A4620A1042005F03CFBA6
:1056400008BD00008C0D00204D4801085461736BAB
:10565000204D61696E0000008C110020F9460108A0
:105660005441534B20204D6573736167657300008F
:105670008C150020CD2B01085461736B2044697395
:10568000700000008C1F0020654F01085441534BEF
:105690002053637069204D65737361676573000003
:1056A0008C180020154501085461736B2053434149
:1056B0004E0000008C1A00200D4601085461736BE7
:1056C00020456E636F64650010B504460948007894
:1056D00070B10120084908700102084802F0EBFA95
:1056E000052001F0EDFC4FF48071044802F0E1FA6E
:1056F00010BD000058000020530000200018014099
:1057000010B504464FF48071054802F0D4FA052024
:1057100001F0D6FC4FF48071014802F0CAFA10BDC6
:105720000018014010B5012007F030F9002007F003
:105730002DF910BD08B501460020009003480090E7
:105740000098084400900098008808BD006C004054
:1057500008B500220092044A0092009A0244009286
:10576000009A116008BD0000006C004000BFFEE719
:105770000146CAB20B1243EA022070472DE9FE43EC
:10578000002600206249087062498868FEF78BFD98
:10579000C7B26049886839460BF094F800B9012611
:1057A0005C49C868FEF77FFDC7B25A49C8683946E8
:1057B0000BF0A9F800B901264EB106205649087031
:1057C00001205349087055490870BDE8FE835149CE
:1057D0008868FEF76FFDC4B24E49C8680BF029F81F
:1057E0000746FFF729F805464A49032248684CA1B5
:1057F0000DF0A6F900283CD0012C06D149480068DC
:10580000494908600846456080E0022C12D14548AD
:105810000068454988600846C560C0680090084631
:105820000EC801A801F0CBFA4048DDE90112C0E939
:105830000E126BE0032C06D13D4805603D48406BDD
:105840003B49486062E0042C60D1394885603948A2
:10585000406B3749C8600846C068009008460EC8CB
:1058600001A801F0ACFA3148DDE90112C0E90C12DF
:105870004CE02849032248682FA10DF061F9E0B3FC
:10588000012C06D12D48006827490860084645606C
:105890003CE0022C12D12948006823498860084660
:1058A000C560C068009008460EC801A801F087FADC
:1058B0001E48DDE90112C0E9061227E0032C06D1DB
:1058C0001B4805601E48406B194948601EE0042CC7
:1058D0001CD1174885601A48406B1549C8600846B6
:1058E000C068009008460EC801A801F068FA0F4889
:1058F000DDE90112C0E9041208E0FFE706200649CD
:1059000008700120024908700449087000BF5CE774
:10591000040000202C2E002003000020570000204F
:1059200043483200D4000020782000209820002036
:10593000882000207021002043483100D000002042
:10594000F82000202DE9FE4300260020834908703E
:1059500083498868FEF7A7FCC7B281498868394641
:105960000AF0B0FF00B901267D49C868FEF79BFC2C
:10597000C7B27B49C86839460AF0C5FF00B901269D
:105980004EB10620774908700120744908707649A5
:105990000870BDE8FE8372498868FEF78BFCC5B2CB
:1059A0006F49C8680AF045FF0746FEF745FF044601
:1059B000012D01DB022D07DD09206A490870012055
:1059C000664908706849087065490322486867A1FC
:1059D0000DF0B6F8B8B3012D0CD1654800686549E3
:1059E000086008464460644804606448006B62498B
:1059F0004860B0E0022DFCD15D4800685D498860D8
:105A00000846C4605C4884605C48006B5A49C860C2
:105A10005848C068009057480EC801A801F0CFF957
:105A20005748DDE90112C0E90A125348C0680090E6
:105A300051480EC801A801F0C2F95148DDE9011230
:105A4000C0E9081287E0FFE74549032248684DA1F5
:105A50000DF076F8B0B3012D0CD14B4800684549E4
:105A6000086008464460444804604848006B424966
:105A7000486070E0022D6ED1434800683D4988605F
:105A80000846C4603C4884604048006B3A49C8609E
:105A90003848C068009037480EC801A801F08FF957
:105AA0003748DDE90112C0E902123348C0680090AE
:105AB00031480EC801A801F082F93148DDE9011230
:105AC00006C048E0FFE726490322486830A10DF0F0
:105AD00037F8B8B3012D0CD12E480068254908606D
:105AE00008464460244804602B48006B2249486003
:105AF00031E0022D2FD1274800681E4988600846F2
:105B0000C4601D4884602448006B1B49C860194864
:105B1000C068009017480EC801A801F050F9184855
:105B2000DDE90112C0E916121348C068009012485E
:105B30000EC801A801F043F91148DDE90112C0E9DE
:105B4000141208E0FFE70620064908700120034907
:105B500008700549087000BF1BE700000400002022
:105B60002C2E002003000020570000204348320064
:105B7000C80000205820002068200020702100204C
:105B80009820002043483100C4000020F820002065
:105B900043483300CC000020E8210020FEB500245B
:105BA00000203049087030494868FEF77CFBC5B2D8
:105BB0002D49486829460AF0A6FE40B906202B491F
:105BC000087001202749087029490870FEBD264940
:105BD00048680AF02EFE0546FEF72EFE04462548CC
:105BE000007940B105202149087001201D49087045
:105BF0001F49087033E02046FEF7DBFD05461E4ACC
:105C00001E4BFEF701FE04D300212046FEF730FEB6
:105C100008D209201549087001201249087014495A
:105C200008701CE0214668460CF010F968460AF03E
:105C300000FE0546FEF700FE0446114844630120BD
:105C4000104908701048C07810B90F48007930B179
:105C50000B48406B0D49486301200D49087000BF97
:105C6000B4E70000040000202C2E002003000020D8
:105C7000570000207822002097218E75719B0940E3
:105C8000F82000200F000020E422002070210020D6
:105C9000100000202DE9FE430020009001900290AA
:105CA0006A4908706A4908706A490870FFF78EFAF5
:105CB0000446FEF75CFD68490860084600686749CD
:105CC0000860674964480068FEF7DCFD02D20020E6
:105CD000614908605E480078012803D15D49087079
:105CE000BDE8FE8300215C480068FEF7C1FD00D2DC
:105CF000F6E7FEF739FA8046594957480068FEF73B
:105D000070FB04465749FEF73AFB5749086057486D
:105D1000816855480068FEF732FB04465348C16865
:105D20002046FEF7D4FA524908604F4800685149AE
:105D300008604F480068FEF73CFD04464E4A4F4B52
:105D4000FEF74AFD02D20020494908604046FEF7AE
:105D50000FFA00203E4908703E4908700120FFF705
:105D600035FA0446FEF703FD3B4908603C493A48D2
:105D70000068FEF787FD02D20020374908603448EA
:105D80000078012802D133490870A9E7FEF7ECF941
:105D90008046334930480068FEF723FB8146FEF712
:105DA00008FD0646364A374BFEF700FC0446FEF770
:105DB00043FD2D4908602D4881692B480068FEF796
:105DC000DEFA04462948C1692046FEF780FA2E49CA
:105DD0000860254800682D4908602B480068FEF7D8
:105DE000E8FC0446244A254BFEF7F6FC02D20120CB
:105DF000164908702648C07840B90021224800683A
:105E0000FEF736FD02D200201F49086018480168DD
:105E100068460CF01BF868460AF00BFD0446FEF7D6
:105E20000BFD134908601848016868460CF00EF82D
:105E300068460AF0FEFC0446FEF7FEFC12490860C4
:105E40004046FEF795F900BF4AE700002B0100200D
:105E500028010020290100205001002054010020C9
:105E600000FEFF46000004425C0100209820002054
:105E7000C4000020DC000020FCA9F1D24D62403FAC
:105E80001283C0CAA1C51A40D0000020E80000203B
:105E9000E4220020FEB5002400202E4908702E497F
:105EA0004868FEF700FAC5B22B49486829460AF04F
:105EB0002AFD40B9062029490870012025490870AB
:105EC00027490870FEBD244948680AF0B2FC05461F
:105ED000FEF7B2FC04462348007940B105201F4973
:105EE000087001201B4908701D49087030E04FF010
:105EF00084412046FEF7C6FC04D300212046FEF76D
:105F0000B7FC08D209201549087001201149087012
:105F1000134908701CE0214668460BF097FF68465D
:105F20000AF087FC0546FEF787FC04460E4804632A
:105F300001200E4908700E48C07810B90C4800794D
:105F400030B10948006B0B49086301200A49087009
:105F500000BFB7E7040000202C2E00200300002023
:105F60005700002078220020F82000200F00002099
:105F7000E422002070210020100000202DE9F041D3
:105F800005460F464FF400080121294801F093FE11
:105F90002021274801F08DFE012001F09FF817B164
:105FA0004FF4803400E000244FF6FF7000EA05153E
:105FB0002C43002622E0012001F090F802211D4828
:105FC00001F077FE04EA080020B90821194801F021
:105FD00070FE03E00821174801F06DFE012001F07A
:105FE0007DF80221134801F066FE012001F076F8E9
:105FF0000221104801F05DFE6400761C182EDAD3F1
:10600000012001F06BF82021094801F054FE012025
:1060100001F064F80121064801F04BFE012001F077
:106020005DF80121024801F046FEBDE8F081000064
:10603000001801400008014070B504460D4629468D
:106040002046FFF79BFF70BDFEB5002400202B49C2
:1060500008702B494868FEF726F9C5B228494868F8
:1060600029460AF050FC40B9062026490870012054
:106070002249087024490870FEBD214948680AF089
:10608000D8FB0546FEF7D8FB04462048C07810B977
:106090001E48007940B105201A49087001201749AF
:1060A00008701949087026E02046FEF782FB054675
:1060B000174A184BFEF7A8FB04D300212046FEF731
:1060C000D7FB08D209200F49087001200B4908703E
:1060D0000D4908700FE0214668460BF0B7FE684690
:1060E0000AF0A7FB0546FEF7A7FB04460A484463EF
:1060F00001200A49087000BFBEE70000040000202C
:106100002C2E00200300002057000020E422002055
:1061100097218E75719B094070210020100000208E
:106120002DE9FE4F0020009001900290BA490870BE
:10613000BA490870FFF7CAF80546FEF718FBB849D8
:106140000860B849B6480068FEF79CFB02D2002000
:10615000B3490860B2480068B3490860AE480078A7
:10616000012801D1BDE8FE8F0021AF480068FEF78D
:106170007FFB00D2F6E7FDF7F7FF8146A949AA4861
:106180000068FEF72EF90546A849FEF7F8F8A84979
:10619000086008460068A7490860A748816AA448C3
:1061A0000068FEF7ECF80546A348C16A2846FEF7EA
:1061B0008EF8A249086008460068FEF7FAFA05461C
:1061C0009F4AA04BFEF708FB02D200209B490860C3
:1061D0004846FDF7CDFF0120FFF778F80546FEF7AA
:1061E000C6FA994908608F4997480068FEF74AFB4C
:1061F00002D2002094490860934800688A490860E8
:1062000085480078012800D1ACE7FDF7ADFF814655
:10621000844985480068FEF7E4F88246FEF7C9FA2B
:1062200007468A4A8A4BFEF7C1F90546FEF704FB8A
:106230007F49086008460068864908607E48816B8F
:106240007B480068FEF79BF805467B48C16B2846F3
:10625000FEF73DF88049086008460068FEF7A9FA95
:106260000546774A774BFEF7B7FA02D201206B4911
:1062700008707A48C07840B9002177480068FEF776
:10628000F7FA02D20020744908606C480168684639
:106290000BF0DCFD68460AF0CCFA0546FEF7CCFAB6
:1062A000664908606C48016868460BF0CFFD684697
:1062B0000AF0BFFA0546FEF7BFFA6749086048468C
:1062C000FDF756FF6548C07800287DD06448007807
:1062D00000B147E75148007810B962480078E0B152
:1062E0004E48007860B15C4801685F480068FDF77F
:1062F000EEFF05464FF08041FEF773F8044618E0C4
:106300005548016858480068FDF7E1FF05464FF021
:106310008041FEF766F804460BE04F48016852489A
:106320000068FDF7D4FF05464FF08041FEF759F8AD
:1063300004464E480078D0B92046FEF73AFA0546A2
:106340004B4A4C4BFEF760FA30D8012047490870A1
:106350004949086B4FF08041FDF7B9FF054601221E
:1063600011460BF0B9FD012000F0B8FE1EE03F48D9
:10637000007801281AD12046FEF71BFA05463F4A4D
:106380003F4BFEF729FA11D23E49086B2749FEF729
:106390006FFA0BD200203549087037490122086B8B
:1063A00011460BF099FD012000F098FE3648006878
:1063B00022490860284801682B480068FDF787FFDC
:1063C00005464FF0804100E016E0FEF70AF8264946
:1063D000086008460068FEF7ECF921F00041054628
:1063E000FEF72AFA20490860084600681A49086042
:1063F00008460068254908601848007918B11A480D
:106400000068154908602248007810B90120214928
:10641000087000BFA6E60000280100202C01002023
:106420003001002000FEFF46500100200000044221
:106430005C010020E000002098200020C80000201F
:10644000FCA9F1D24D62403F340100201283C0CA42
:10645000A1C51A40EC000020D4000020E422002056
:10646000290100202B010020D0000020590100202C
:106470009A9999999999B93F702100207B14AE4758
:10648000E17A843FF8200020C4000020D8000020DA
:106490005A00002034000020FEB5002400202B49C3
:1064A00008702B494868FDF7FEFEC5B228494868C8
:1064B00029460AF028FA40B906202649087001202A
:1064C0002249087024490870FEBD214948680AF035
:1064D000B0F90546FEF7B0F904462048007928B91E
:1064E0001F48007910B91E48C07840B105201949ED
:1064F00008700120154908701749087023E04FF013
:1065000084412046FEF7BEF904D300212046FEF761
:10651000AFF908D209200F49087001200B49087013
:106520000D4908700FE0214668460BF08FFC684665
:106530000AF07FF90546FEF77FF90446094804632F
:1065400001200949087000BFBEE7000004000020D8
:106550002C2E002003000020570000209022002055
:10656000E4220020702100201000002070B50446B5
:1065700000252021124801F09CFB322001F0B1F8E7
:1065800000BF02210F4807F0FFFB0028F9D0214689
:106590000C4807F005FC00BF01210A4807F0F4FB96
:1065A0000028F9D0074807F0F8FB0546AD11322066
:1065B00001F097F82021024801F07DFB284670BDCC
:1065C000001001400030014008B501211C2006F0F8
:1065D000CDF9E020ADF8000018208DF8030003206D
:1065E0008DF802006946134801F086FA0120ADF8E3
:1065F000000010208DF8030003208DF8020069468A
:106600000D4801F079FA2020ADF8000010208DF837
:10661000030003208DF802006946084801F06CFA77
:106620002021064801F047FB0121034801F043FB0C
:1066300008BD000000080140000C014000100140AE
:1066400000B585B00121080306F090F90021154836
:1066500007F08EFB0020ADF800004FF48270ADF81B
:1066600002004FF40060ADF804000020ADF8060011
:106670000120ADF808004002ADF80A003820ADF85E
:106680000C000020ADF80E000720ADF810006946A0
:10669000044807F087FB0121024807F069FB05B0B9
:1066A00000BD000000300140FEB5002404E00020E1
:1066B0000DF80400601CC4B20A2CF8DB002010495D
:1066C00008701048007870B10F4805682946684680
:1066D0000BF0BCFB6846FDF7E6FD06B231466846A6
:1066E0000FF09CF80BE0002168460BF0AFFB68460A
:1066F000FDF7D9FD06B2314668460FF08FF8FEBDB2
:1067000004000020B0000020CC0000202DE9FE4F46
:1067100000200090019002902849087028490870D4
:106720000AF09CF80446FEF722F82649086008465D
:10673000006825490860254922480068FEF7A2F84C
:1067400002D200201F49086000211E480068FEF7A1
:106750008FF801D2BDE8FE8FFDF706FD82461B498A
:1067600018480068FDF73DFE8346FEF722F8804694
:106770004FF06632164BFDF719FF0646154A164BC9
:10678000FDF714FF0446FEF757F814490860084661
:106790000068134908601348816D10480068FDF7D0
:1067A000EEFD04460F48C16D2046FDF790FD0E49F1
:1067B00008605046FDF7DCFC00BFCBE72801002055
:1067C00029010020500100205401002000007F43D7
:1067D00066660A400AD7A3703D0A09405C010020A2
:1067E000E400002098200020CC00002010B50446D2
:1067F0000121134801F05DFA2021124801F05BFAF3
:10680000962000F06EFF00BF02210F4807F0BCFA8F
:106810000028F9D021460C4807F0C2FA00BF012138
:10682000094807F0B1FA0028F9D0074807F0B5FA8F
:10683000962000F056FF0121014801F03CFA10BDFE
:10684000000C01400010014000300140FEB5002462
:1068500000202149087021494868FDF724FDC5B290
:106860001E49486829460AF04EF840B906201C49DE
:1068700008700120184908701A490870FEBD1749B0
:10688000486809F0D6FF0546FDF7D6FF04461649CD
:106890002046FDF7F7FF04D300212046FDF7E8FF6F
:1068A00008D209200E49087001200B4908700D49D3
:1068B00008700FE0214668460BF0C8FA684609F0F8
:1068C000B8FF0546FDF7B8FF0446084804630120F9
:1068D0000749087000BFD1E7040000202C2E0020DB
:1068E00003000020570000200000C040E8210020E5
:1068F0001100002010B5FFF767FEFFF7A1FE10BDE5
:1069000038B5002404E000200DF80400601CC4B277
:10691000042CF8DB0748027807A1684609F084FADE
:106920006846FDF7C0FC05B2294668460EF076FFC2
:1069300038BD00003B0000202564000070B504460F
:10694000002545EA041085B22846FFF74FFF70BDC9
:1069500070B504462046FDF72CFF0546464A474BD6
:10696000FDF752FF17D22046FDF723FF0546444AA4
:10697000444BFDF731FF0ED24348444908630020E1
:1069800043490870084600784249487640480078F4
:1069900007F0C0FA6EE02046FDF70BFF0546364AC9
:1069A00052423D4BFDF730FF14D22046FDF701FF68
:1069B0000546314A394BFDF70FFF0BD20120344910
:1069C000087008460078334948763148007807F067
:1069D000A1FA4FE02046FDF7ECFE0546304A314B68
:1069E000FDF712FF14D22046FDF7E3FE05462E4ABE
:1069F0002E4BFDF7F1FE0BD2022025490870084608
:106A00000078244948762248007807F083FA31E07C
:106A10002046FDF7CEFE0546254A264BFDF7F4FE3F
:106A200015D22046FDF7C5FE0546214A5242224BAB
:106A3000FDF7D2FE0BD203201549087008460078F6
:106A4000144948761248007807F064FA12E02021D1
:106A50001A4801F02EF94FF48061194801F029F924
:106A60004FF40071164801F024F94FF48071144876
:106A700001F01FF970BD0000295C8FC2F528FC3FB2
:106A80001F85EB51B81EFD3F6666E63FE8210020FA
:106A90003B000020A82200200AD70340F52804402C
:106AA0003D0AD7A3703D0A408FC2F5285C8F0A408B
:106AB000EC51B81E85EB13407A141440000C0140D1
:106AC0000008014010B5FBE047F6FF7082490860FE
:106AD0008248008800F00F0081490870084600785D
:106AE00000287DD17C484438006800F440507D493E
:106AF000088079484438006800F030007A490880FE
:106B00007549443909684BF68F7201EA020080F436
:106B10000050714944390860096848F6BF7201EABB
:106B2000020080F020006C49443908606B480088FE
:106B300000F01000F0B90846006848F60F710840F0
:106B400065494439086002F07DF9634844380068BB
:106B500084B204F4084078B35F4844380068C0F356
:106B60000E0048F68F7108405B494439086007F011
:106B7000BBFF32E058484438006884B204F080001B
:106B800050B155484438006848F60F7108405249E2
:106B90004439086002F056F904F4006068B14E48C8
:106BA00044380068C0F30E0048F68F7108404A4927
:106BB0004439086007F098FF0FE004F4004060B12A
:106BC000454844380068C0F30E0048F68F7108400D
:106BD00041494439086005F033FA3F49443900E03F
:106BE0002CE009684BF68F7201EA02003D490988E2
:106BF00001F4805109B180F480503A49098801F4C8
:106C0000005109B180F400503349443908600968E3
:106C100048F6BF7201EA02003349097801F0100119
:106C200009B180F010003049097801F0200109B164
:106C300080F0200028494439086041E02848007865
:106C40002A4901EB8000D0F8000C84B204F4004023
:106C5000C0B12348007801EB8000D0F8000CC0F3ED
:106C60000E0048F68F7108401D4909781F4A02EB53
:106C70008101C1F8000C1A490978491E1C4A52F8D2
:106C80002100804704F08000D0B1154800781749F2
:106C900001EB8000D0F8000C48F60F710840104955
:106CA0000978124A02EB8101C1F8000C0120114958
:106CB00008700B490978491E0F4A52F82100804795
:106CC0000548006880B20549088000F400400028AB
:106CD0007FF4FAAE10BD0000445C0040580900206B
:106CE0000C0900202009002022090020005000404B
:106CF00078090020240900205C09002010B5044810
:106D0000007810B9FEF74AFF01E0FFF79DF910BDCA
:106D10000500002010B509F087FE09F059FE10BDEE
:106D200010B560220849094805F0FAFB18B10020A7
:106D30000749087007E0022006490870012004494D
:106D400008700549087010BD9820002000F801085F
:106D500004000020030000205700002010B500248C
:106D600018E00E4951F834000D49FDF78BFD06D3AC
:106D70000A4951F834000021FDF77AFD08D84FF098
:106D80007E50064941F83400002001EBC401486000
:106D9000601CC4B20C2CE4DB10BD00009820002065
:106DA000000020412DE9F04105460E4614461F46DD
:106DB000E0B22A46334600F0B3FFBDE8F0810FB4DD
:106DC0007CB5044608990A98FDF7D3FA05460021D8
:106DD000FDF758FD0ED807990998FDF7CAFA054640
:106DE00008990A98FDF7C5FA06462946FDF7F9FA0B
:106DF00000900DE009990798FDF7BBFA05460A993E
:106E00000898FDF7B6FA06462946FDF7EAFA00901B
:106E100009990098FDF7B3FA05460A99FDF7ACFA0F
:106E20000190DDE90001C4E900017CBC5DF814FBC0
:106E30002DE9F04104460D4616461F460022064B3A
:106E400020462946FDF7C8FCF0B222462B4601F049
:106E50005BFABDE8F0810000000024400B4A02EB21
:106E60008001D1F8001C01F4804169B102EB80017E
:106E7000D1F8001C48F68F72114041F48041034B59
:106E800003EB8002C2F8001C704700000050004075
:106E90000B4A02EB8001D1F8001C01F0400169B1FE
:106EA00002EB8001D1F8001C48F68F72114041F0CE
:106EB0004001034B03EB8002C2F8001C7047000046
:106EC00000500040064A02EB8001D1F8001C48F651
:106ED0008F621140024B03EB8002C2F8001C704726
:106EE000005000402DE9F04104460F46666B2748EC
:106EF000844201D1002500E001252548007828B111
:106F00002248844202D12348066810E022480078D3
:106F100068B1224884420AD12148C07810B920487B
:106F2000007910B11B48066801E01E480668A07889
:106F300090B11D48007802280DD11448844202D136
:106F40001A48007830B11548844204D117480078B7
:106F5000012800D113E012E01348007802280DD177
:106F60000A48844202D11148007830B10B4884426B
:106F700004D10E480078012800D100E000BFA278BB
:106F8000A9B2304600F014F8BDE8F081F8200020E6
:106F9000B0000020D0000020B100002070210020AF
:106FA000E4220020D400002037000020050000204B
:106FB00070B504460D461646E8B2214601F0FCFACB
:106FC00070BD00002DE9F04105460F464FF4000862
:106FD0004FF400612D4800F06EFE4FF480712B4895
:106FE00000F067FE012000F07CFB17B14FF4803405
:106FF00000E000244FF6FF7000EA05152C43002640
:1070000027E0012000F06AF84FF40051204800F01A
:1070100050FE04EA080028B94FF400411C4800F073
:1070200048FE04E04FF40041194800F044FE0120FE
:1070300000F054F84FF40051154800F03CFE0120D8
:1070400000F04CF84FF40051114800F032FE64009B
:10705000761C182ED5D3012000F040F84FF4807133
:107060000A4800F028FE012000F038F84FF40061D3
:10707000064800F01EFE012000F030F84FF40061D9
:10708000024800F018FEBDE8F08100000014014045
:10709000000C014070B504460D4629462046FFF716
:1070A00091FF70BD40F2FF1105E000BF0A00A1F1A1
:1070B000010399B2FAD10200A0F10100F5D17047A5
:1070C00041F6FF7105E000BF0A00A1F1010399B28A
:1070D000FAD10200A0F10100F5D1704740F2FF5152
:1070E00005E000BF0A00A1F1010399B2FAD1020044
:1070F000A0F10100F5D1704770B504460D46E8B225
:10710000214600F0EBFF70BD70B504460D46E8B2B5
:10711000214601F01BFB70BD38B5044611480078CC
:10712000009054B19DF8000020F0020000909DF8FE
:10713000000040F00400009009E09DF8000040F0DD
:10714000020000909DF8000020F0040000909DF8DF
:10715000000004490870012269461C2008F0FCFD6B
:1071600038BD00000408002070B50446022534B183
:107170000948007840F008000749087005E0064813
:10718000007820F0080004490870012202491B2001
:1071900008F0E2FD70BD00000508002070B504464F
:1071A00002255CB10E48007820F001000C490870FF
:1071B0000846007820F0040008700AE008480078CB
:1071C00040F00400064908700846007820F00100ED
:1071D0000870012202491B2008F0BEFD70BD0000AE
:1071E0000508002070B5044602255CB10E48007801
:1071F00020F001000C4908700846007820F00400D7
:1072000008700AE00848007840F00100064908705C
:107210000846007820F004000870012202491B2073
:1072200008F09AFD70BD00000508002038B504463E
:1072300014B10D20009001E00B200090012269465E
:107240001D2008F089FD38BD38B504462248007875
:10725000009054B19DF8000040F0020000909DF8AD
:10726000000040F00100009009E09DF8000020F0CF
:10727000020000909DF8000020F0010000909DF8B1
:1072800000001549087001226946082008F064FDD5
:1072900012480078009054B19DF8000040F00200C0
:1072A00000909DF8000040F00100009009E09DF87A
:1072B000000020F0020000909DF8000020F0010086
:1072C00000909DF8000005490870012269461E20C3
:1072D00008F042FD38BD000002080020030800202D
:1072E00038B5044611480078009054B19DF800006C
:1072F00040F0010000909DF8000040F00800009070
:1073000009E09DF8000020F0010000909DF80000C9
:1073100020F0080000909DF8000004490870012248
:1073200069461C2008F018FD38BD00000408002044
:107330002DE9F0471E48006800F110052E881C4812
:107340000068077A36B9042F04D10727102019499D
:10735000088027E0AC88A64201D8042000E0022083
:107360000746B44200D93446A0B2A968884780468F
:10737000002000F0C5FC8146A2B24946404608F014
:1073800087FAA1B2002007F023FA2888001B288082
:107390006888204468803020064908800002064939
:1073A000088000BF024909680F72BDE8F08700003D
:1073B0001009002022090020200900202DE9F041B9
:1073C0002848006800F110042688A068C0B1BEB14A
:1073D000A588B54200D93546A8B2A16888470746B6
:1073E0002088401B2080608828446080002000F0B6
:1073F00065FC8046AAB24146384605F0C3F800BF96
:10740000208850B14FF440501749088000210846A9
:1074100007F0DEF93020154908802088A1888842CD
:1074200004DB03200F490968087218E0208800284F
:1074300004DD05200B490968087210E0208870B946
:10744000062008490968087200210948006880B2CE
:10745000801C084A42F81010302004490880BDE81A
:10746000F0810000100900202009002022090020DE
:10747000505C0040006000402DE9F05F88480068E3
:1074800045780027BA46062D1BD18548006800784C
:1074900000F07F00002813D181490968887801280D
:1074A00003D180490968CF690AE0022803D17D49E8
:1074B00009680F6A04E0032802D17A4909684F6A13
:1074C00094E0002D64D176480068408800285FD1A0
:1074D00073480068C08802285AD171480068007952
:1074E000002855D16E480068007800F07F0028B968
:1074F0006B480068808808B96B4F77E0684800687F
:10750000007800F07F00012810D1654909684879AA
:10751000644909688A6900219047002866D160485B
:107520000068807A002861D05F4F5FE05C480068A7
:10753000007800F07F00022858D15948006840794F
:1075400000F00F0656480068407900F07009544872
:107550000068407900F0800038B1544901EB8600A2
:10756000D0F8000C00F0300806E0504901EB86002E
:10757000D0F8000C00F440584D480078B04235D99E
:10758000B9F1000F32D1B8F1000F2FD0464F2DE0E6
:10759000082D07D142480068007800F07F0028BB22
:1075A000444F23E00A2D21D13D480068007800F0C7
:1075B0007F0001281AD13A480068807AB0B1384873
:1075C0000068408890B936480068007970B934483E
:1075D0000068C088012809D13149096848793149D2
:1075E00009688A690021904700B9334F57B12C4888
:1075F0000068A0F812A02A48006887610020B847F8
:1076000000240FE0264A12685078264A1268116951
:1076100088470446032C05D10920214909680872CE
:10762000BDE8F09F1E480068008A4FF6FF7188424F
:1076300004D109201A4909680872F1E7022C03D025
:1076400017480068008A20B908201549096808729F
:10765000E6E713480068007800F08000B0B11048F9
:107660000068B0F806B00E480068008A584503D993
:107670000B490968A1F810B00A48006890F82C106E
:10768000074800688182FFF753FE06E003200449A3
:107690000968087200030949088000BFC0E70000BC
:1076A000100900201409002071ED0008005000406E
:1076B000B1090020F5EC000845ED00082009002084
:1076C00010B50548007830B100200349087003491F
:1076D0000870FFF749FD10BD1800002019000020B8
:1076E000704701B5002008E00C2100BF0A00A1F19D
:1076F0000103D9B2FAD1411C88B200998842F3D370
:1077000008BD01B5002008E00C2100BF0A00A1F16E
:107710000103D9B2FAD1411C88B200998842F3D34F
:1077200008BD000010B5012000F0D8FA0C4908602F
:107730000846006848B1002009F09AFF0120094975
:10774000087007480088084908800548008882B208
:10775000C021064804F016FF012007F013F810BD01
:10776000480900204C0900205409002060400020F6
:1077700001200149086070475009002010B54FF4FE
:10778000006000F025F860B10648007828B90120B3
:10779000044908700020044908604FF4006000F0BC
:1077A00011F810BD780000207C00002010B50420E6
:1077B00000F00EF820B10DF053FE042000F002F8A6
:1077C00010BD00000149086070470000140401402A
:1077D000014600200022074B1B6803EA0102054B0B
:1077E00014331B680B4013B10AB1012000E00020E4
:1077F000704700000004014030B5044604254FF4F2
:10780000302000F095F80546042D17D10C4800698A
:1078100040F002000A49086108464461006940F0EE
:10782000400008614FF4302000F082F8054604481B
:10783000006941F6FD71084001490861284630BDE4
:107840000020024004200B49C96801F0010109B180
:1078500001200EE00749C96801F0040109B10220C6
:1078600007E00449C96801F0100109B1032000E0F4
:1078700004207047002002400549096821F01001EA
:10788000034A116011460968014311607047000006
:107890000020024078B506460C46042500200090E2
:1078A000E80200F045F80546042D24D1134800698C
:1078B00040F00100114908613480E80200F038F816
:1078C0000546042D10D1B01C0090200C00990880B2
:1078D000E80200F02DF805460848006941F6FE71FF
:1078E00008400649086106E00448006941F6FE7157
:1078F000084002490861284678BD00000020024087
:1079000001460020034A106800F038000843106068
:1079100070470000002002400248034948600348C5
:10792000486070472301674500200240AB89EFCDD6
:1079300000B502460423FFF785FF034603E0FFF787
:1079400081FF0346521E012B01D1002AF7D102B953
:107950000523184600BD000008B501217C2005F074
:1079600005F840F21D40ADF8000010208DF803002E
:1079700003208DF802006946594800F0BDF8022145
:10798000584800F098F94EF21830ADF80000102079
:107990008DF8030003208DF802006946524800F07C
:1079A000ABF841F68350ADF8000010208DF80300CD
:1079B00003208DF8020069464B4800F09DF84EF216
:1079C0007030ADF8000003208DF8020010208DF813
:1079D00003006946454800F08FF84FF2E370ADF8B8
:1079E000000003208DF8020010208DF80300694686
:1079F0003C4800F081F84FF41170ADF8000003200E
:107A00008DF8020010208DF803006946384800F018
:107A100073F84021364800F04EF940F60C00ADF8FE
:107A2000000003208DF8020004208DF80300694651
:107A30002C4800F061F84FF480512B4800F03BF9DE
:107A40004FF480712A4800F036F94FF4007128484D
:107A500000F031F91021234800F02DF94FF4807126
:107A6000204800F026F901F013F801211F4800F02A
:107A700022F901F093FE01F01DFA10211C4800F0DC
:107A800018F908211A4800F016F90421184800F0E6
:107A900012F90221164800F00EF90221124800F0F6
:107AA00008F980210F4800F004F94FF400710E48E6
:107AB00000F0FFF880210E4800F0F2F830B904E041
:107AC0004FF40071084800F0F6F8F9E74021084843
:107AD00000F0E6F810B901200649087008BD000062
:107AE0000008014000180140000C01400010014056
:107AF00000140140280000202DE9F0410246002535
:107B00000026002000230024002791F803C00CF079
:107B10000F0591F803C00CF0100CBCF1000F03D05E
:107B200091F802C04CEA050591F800C0BCF1000FC5
:107B300031D0146800202BE04FF0010C0CFA00F358
:107B4000B1F800C00CEA03069E4220D183004FF03A
:107B50000F0C0CFA03F7BC4305FA03FC4CEA0404CF
:107B600091F803C0BCF1280F06D14FF0010C0CFABC
:107B700000FCC2F814C00AE091F803C0BCF1480F41
:107B800005D14FF0010C0CFA00FCC2F810C0401CEB
:107B90000828D1D31460B1F800C0BCF1FF0F34DD68
:107BA000546800202EE000F1080C4FF0010808FA9C
:107BB0000CF3B1F800C00CEA03069E4221D1830009
:107BC0004FF00F0C0CFA03F7BC4305FA03FC4CEA28
:107BD000040491F803C0BCF1280F05D100F1080C92
:107BE00008FA0CF8C2F8148091F803C0BCF1480FF1
:107BF00007D100F1080C4FF0010808FA0CF8C2F8A0
:107C00001080401C0828CED35460BDE8F0810000ED
:107C1000F0B50A46002300240021002500F00046AC
:107C2000B6F1004F02D11D4EF16901E01B4E7168A3
:107C3000C0F3034583B200F44016B6F5401F08D1E7
:107C400021F07061154E766826F07066134F7E60E5
:107C500012E000F48016B6F5801F06D1032606FA5E
:107C600005F4A14341F0706106E0460D360103FAC8
:107C700006F6B14341F0706122B1460D360103FAB8
:107C800006F6314300F00046B6F1004F02D1034E34
:107C9000F16101E0014E7160F0BD000000000140A3
:107CA0000246002093680B400BB1012000E0002049
:107CB0007047416170470161704700000146054807
:107CC000006880B200EBC100001D034A32F81000CA
:107CD00080B27047505C004000600040014606489A
:107CE000006880B200EBC100801D044A32F8100029
:107CF000C0F3090070470000505C00400060004085
:107D000001460548006880B200EBC100034A32F822
:107D1000100080B270470000505C004000600040DE
:107D20002DE9FE43804616461F46002404E000204D
:107D30009B490855601CC4B2102CF8DB0022994BFB
:107D400030463946FCF748FD08D2974A974B3046F3
:107D50003946FCF759FD01D20026924F32463B4688
:107D60008F480AF087F800228E4B30463946FCF7E0
:107D700033FD52D28E4800788DF800008848807814
:107D8000302190FBF1F201FB1200C5B28948405D41
:107D90008DF801008248C07890FBF1F201FB1200DF
:107DA000C5B28448405D8DF802007D48007990FBA3
:107DB000F1F201FB1200C5B27E48405D8DF8030070
:107DC0007748407990FBF1F201FB1200C5B2794887
:107DD000405D8DF804007248807990FBF1F201FB60
:107DE0001200C5B27348405D8DF805006C48C0793B
:107DF00090FBF1F201FB1200C5B26E48405D8DF8B8
:107E000006006748007A90FBF1F201FB1200C5B250
:107E10006848405D8DF8070058E0614800783021DF
:107E200090FBF1F201FB1200C5B26148405D8DF894
:107E300000005B48807890FBF1F201FB1200C5B2B4
:107E40005C48405D8DF801005548C07890FBF1F228
:107E500001FB1200C5B25748405D8DF80200504842
:107E6000007990FBF1F201FB1200C5B25148405D70
:107E70008DF803004A48407990FBF1F201FB1200B3
:107E8000C5B24C48405D8DF804004548807990FBB0
:107E9000F1F201FB1200C5B24648405D8DF80500C5
:107EA0003F48C07990FBF1F201FB1200C5B2414896
:107EB000405D8DF806003A48007A90FBF1F201FB34
:107EC0001200C5B23B48405D8DF80700B8F1000FC5
:107ED00039D1002405E01DF8040037490855601C1D
:107EE000C4B2042CF7DB04223349092007F0DCFE7E
:107EF000002406E0201D1DF8000030490855601CD4
:107F0000C4B2042CF6DB2E48407B58B12B48807855
:107F100040F00800294988700846C07820F0080021
:107F2000C8700AE02548C07840F008002349C870AE
:107F30000846807820F00800887004221F49082035
:107F400007F0DEFE2AE0002405E01DF804001B49CE
:107F50000855601CC4B2042CF7DB1948407B60B1A3
:107F60009DF8020040F008008DF802009DF8030023
:107F700020F008008DF803000BE09DF8030040F0AE
:107F800008008DF803009DF8020020F008008DF82D
:107F9000020004226946082007F0B2FEBDE8FE8315
:107FA0002C2F00200000F03F96438B6CE7FBEF3F47
:107FB0002408002006080020F2070020F607002011
:107FC000E42200200EB500208DF800000122694651
:107FD000182007F095FE0EBDFEB504460D4600269E
:107FE00004E0002035498855701CC6B2102EF8DB1D
:107FF0000022334B20462946FCF7EEFB08D2314ADB
:10800000314B20462946FCF7FFFB01D200242C4DC2
:1080100022462B46294809F03DFF00222B4B2046E3
:108020002946FCF7D9FB09D24FF06632284B20468F
:108030002946FCF7E9FB01D20024244D0022234B02
:1080400020462946FCF7C8FB10D2224800788DF85C
:1080500001001A488078302190FBF1F201FB1200F8
:10806000C7B21C48C05D8DF8000016E013480078C8
:10807000302190FBF1F201FB1200C7B21548C05D40
:108080008DF801000D48807890FBF1F201FB1200A1
:10809000C7B21048C05D8DF80000002605E01DF84D
:1080A00006000D498855701CC6B2022EF7DB02226D
:1080B00009491B2007F024FEFEBD00002C2F0020E4
:1080C00000002440CBA145B6F3FD23400000F03F63
:1080D0006666EE3F1A080020F00700202DE9FC47F5
:1080E00006468946002404E0002080490855601CAB
:1080F000C4B2102CF8DB4FF07E514846FCF7B8FBB9
:108100000AD24846FCF755FB0746794A794BFCF7FB
:108110007BFB01D24FF07E594846FCF74AFB0746ED
:108120003A460B46714809F0A5FE4FF07E5148468D
:10813000FCF79EFB50D2704800788DF800006B4829
:108140008078302190FBF1F201FB1200C5B26B4840
:10815000405D8DF801006548C07890FBF1F201FBAD
:108160001200C5B26548405D8DF802005F48007995
:1081700090FBF1F201FB1200C5B25F48405D8DF843
:1081800003005A48407990FBF1F201FB1200C5B29E
:108190005A48405D8DF804005448807990FBF1F214
:1081A00001FB1200C5B25548405D8DF805004F48EF
:1081B000C07990FBF1F201FB1200C5B24F48405D5F
:1081C0008DF806004948007A90FBF1F201FB12009D
:1081D000C5B24A48405D56E044480078302190FBE3
:1081E000F1F201FB1200C5B24348405D8DF800007A
:1081F0003E48807890FBF1F201FB1200C5B23F4887
:10820000405D8DF801003948C07890FBF1F201FB28
:108210001200C5B23948405D8DF80200334800793C
:1082200090FBF1F201FB1200C5B23348405D8DF8BE
:1082300003002E48407990FBF1F201FB1200C5B219
:108240002E48405D8DF804002848807990FBF1F2BB
:1082500001FB1200C5B22948405D8DF80500234896
:10826000C07990FBF1F201FB1200C5B22348405DDA
:108270008DF806001D48007A90FBF1F201FB120018
:10828000C5B21E48405DFEB9002405E01DF804009B
:108290001B490855601CC4B2042CF7DB0422694654
:1082A000112007F001FD002406E0201D1DF800004C
:1082B00014490855601CC4B2042CF6DB042269463C
:1082C000102007F01DFD0EE0002405E01DF804005D
:1082D0000C490855601CC4B2042CF7DB0422694623
:1082E000102007F00DFDBDE8FC8700002C2F0020BA
:1082F00096438B6CE7FBEF3F240800200608002024
:10830000FA070020FE0700202DE9FE4380461646AE
:108310001F46002404E0002080490855601CC4B2B8
:10832000102CF8DB00227E4B30463946FCF754FA1D
:1083300008D27C4A7C4B30463946FCF765FA01D2BC
:108340000026774F32463B46744809F093FD0022E1
:10835000734B30463946FCF73FFA52D273480078E7
:108360008DF800006D480078302190FBF1F201FBA0
:108370001200C5B26E48405D8DF8010067488078F4
:1083800090FBF1F201FB1200C5B26848405D8DF828
:1083900002006248C07890FBF1F201FB1200C5B206
:1083A0006248405D8DF803005C48007990FBF1F273
:1083B00001FB1200C5B25D48405D8DF804005748CE
:1083C000407990FBF1F201FB1200C5B25748405DC5
:1083D0008DF805005148807990FBF1F201FB120005
:1083E000C5B25248405D8DF806004C48C07990FBFC
:1083F000F1F201FB1200C5B24C48405D8DF8070058
:1084000058E046480078302190FBF1F201FB120061
:10841000C5B24648405D8DF800004048407890FB6A
:10842000F1F201FB1200C5B24148405D8DF8010038
:108430003A48C07890FBF1F201FB1200C5B23B480C
:10844000405D8DF802003548007990FBF1F201FBA8
:108450001200C5B23548405D8DF803002F484079C1
:1084600090FBF1F201FB1200C5B23048405D8DF87F
:1084700004002A48807990FBF1F201FB1200C5B29A
:108480002A48405D8DF805002448C07990FBF1F240
:1084900001FB1200C5B22548405D8DF806001F485B
:1084A000007A90FBF1F201FB1200C5B21F48405D5B
:1084B0008DF80700B8F1000F1FD1002405E01DF86A
:1084C00004001C490855601CC4B2042CF7DB0422CC
:1084D0001849002007F0E8FB002406E0201D1DF8E5
:1084E000000015490855601CC4B2042CF6DB0422B8
:1084F0001149002007F004FC0EE0002405E01DF8FF
:1085000004000D490855601CC4B2042CF7DB04229A
:108510006946002007F0F4FBBDE8FE832C2F002005
:1085200000002440CBA145B6F3FD234006080020FF
:1085300024080020E8070020EC07002038B5044696
:108540005CB11448807840F00800124988700846F1
:10855000C07820F00800C8700AE00E48C07840F0EB
:1085600008000C49C8700846807820F00800887020
:10857000084880780090012269460C2007F018FC1A
:108580000448C0780090012269460E2007F010FCD4
:1085900038BD0000F60700203EB5044625460548D4
:1085A000405D8DF8000001226946182007F0A8FB05
:1085B0003EBD0000100800202DE9FC470646894614
:1085C000002404E0002059490855601CC4B2102C56
:1085D000F8DB4FF07E514846FCF74AF90AD248468C
:1085E000FCF7E7F80746524A524BFCF70DF901D267
:1085F0004FF07E5949464D4809F028FC4FF07E5116
:108600004846FCF735F926D24B4800788DF8000033
:1086100046488078302190FBF1F201FB1200C5B290
:108620004648405D8DF801004048C07890FBF1F26B
:1086300001FB1200C5B24148405D8DF802003B4885
:10864000007990FBF1F201FB1200C5B23B48405D9E
:108650008DF803002CE035480078302190FBF1F2D2
:1086600001FB1200C5B23448405D8DF800002F4870
:10867000807890FBF1F201FB1200C5B22F48405DFB
:108680008DF801002948C07890FBF1F201FB12003F
:10869000C5B22A48405D8DF802002448007990FB5D
:1086A000F1F201FB1200C5B22448405D8DF80300D1
:1086B0007EB9002405E01DF8040021490855601C1E
:1086C000C4B2042CF7DB04226946092007F0ECFA57
:1086D0002AE0002405E01DF804001A490855601C32
:1086E000C4B2042CF7DB1848407B60B19DF802004F
:1086F00040F008008DF802009DF8030020F008000B
:108700008DF803000BE09DF8030040F008008DF8A1
:1087100003009DF8020020F008008DF802000422FA
:108720006946082007F0ECFABDE8FC872C2F0020F2
:1087300096438B6CE7FBEF3F2408002006080020DF
:10874000F2070020F6070020E42200202DE9FC4774
:1087500006468946002404E000206C490855601C48
:10876000C4B2102CF8DB6A494846FCF781F80BD2FA
:108770004846FCF71EF80746664A674BFCF744F884
:1087800012D2DFF88C910FE064494846FCF770F88C
:108790000AD24846FCF70DF80746614A614BFCF7E0
:1087A00033F801D2DFF874914946584809F04EFB7E
:1087B00057494846FCF766F82DD8544800783021D0
:1087C00090FBF1F201FB1200C5B25748405D8DF8F5
:1087D00000004E48407890FBF1F201FB1200C5B258
:1087E0005148405D8DF801004848807890FBF1F2D7
:1087F00001FB1200C5B24D48405D8DF802004348B0
:10880000007990FBF1F201FB1200C5B24748405DD0
:108810008DF8030058E041494846FCF729F826D274
:10882000414800788DF8000038480078302190FBEE
:10883000F1F201FB1200C5B23C48405D8DF8010029
:108840003248807890FBF1F201FB1200C5B2364845
:10885000405D8DF802002D48C07890FBF1F201FBDD
:108860001200C5B23148405D8DF803002CE0274866
:108870000078302190FBF1F201FB1200C5B22A48CA
:10888000405D8DF800002148407890FBF1F201FB3B
:108890001200C5B22548405D8DF801001B48C07824
:1088A00090FBF1F201FB1200C5B21F48405D8DF84C
:1088B00002001648007990FBF1F201FB1200C5B2EC
:1088C0001A48405D8DF803007EB9002405E01DF8CC
:1088D000040017490855601CC4B2042CF7DB0422BD
:1088E0006946112007F0E0F90EE0002405E01DF8CC
:1088F000040010490855601CC4B2042CF7DB0422A4
:108900006946102007F0FCF9BDE8FC872C2F0020F9
:108910000000C84248E17A14AEFF584000002041F0
:1089200039B4C876BEFF2340060800202408002082
:10893000FA070020FE0700202DE9FC47064689467D
:10894000002404E000204A490855601CC4B2102CE1
:10895000F8DB48494846FBF78BFF0AD24846FBF74D
:1089600028FF0746444A454BFBF74EFF01D2DFF88C
:10897000049149463E4809F069FA3E494846FBF7EA
:1089800077FF26D23E4800788DF8000038480078FE
:10899000302190FBF1F201FB1200C5B23948405D75
:1089A0008DF801003248807890FBF1F201FB120053
:1089B000C5B23348405D8DF802002D48C07890FB69
:1089C000F1F201FB1200C5B22D48405D8DF80300A5
:1089D0002CE027480078302190FBF1F201FB1200D7
:1089E000C5B22748405D8DF800002148407890FBD3
:1089F000F1F201FB1200C5B22248405D8DF8010082
:108A00001B48C07890FBF1F201FB1200C5B21C4874
:108A1000405D8DF802001648007990FBF1F201FBF1
:108A20001200C5B21648405D8DF803007EB90024DF
:108A300005E01DF8040014490855601CC4B2042C5C
:108A4000F7DB04226946002007F02EF90EE000242F
:108A500005E01DF804000D490855601CC4B2042C43
:108A6000F7DB04226946002007F04AF9BDE8FC87DD
:108A70002C2F002000002041CBA145B6F3FD234060
:108A80000608002024080020E8070020EC0700204A
:108A900008B501211C2003F069FF0420ADF8000097
:108AA00014208DF8030003208DF802006946084861
:108AB000FFF722F80F20ADF8000010208DF803001A
:108AC00003208DF8020069460248FFF715F808BD3B
:108AD000000C0140001001407CB56A4D6A4E002038
:108AE0006A4908706A49087004206A4908700024BD
:108AF00004E0002068490855601CC4B2202CF8DB53
:108B000002216648FFF7D7F801216448FFF7D3F840
:108B1000292005F0F1FC012005F0EEFC032005F012
:108B2000EBFC10225C49002007F0BEF80920019000
:108B3000012201A91A2007F00FF907200190012254
:108B400001A91F2007F008F90B200190012201A9BB
:108B50001D2007F001F902200190012201A91B202C
:108B600007F0FAF801224949082007F0F5F8012238
:108B700046491E2007F0F0F84949086BFDF7E8FE6A
:108B80004848016B0020FFF7D7FE4648416B0020A4
:108B9000FFF712FD434A516B106BFBF7F0FB4149A5
:108BA00048640846416C0020FFF7D0FD002401E036
:108BB000601CC4B2202CFBDB01213848FFF77BF896
:108BC000292005F0B5FC012005F0B2FC032005F0DA
:108BD000AFFC002404E000202F490855601CC4B2FB
:108BE000202CF8DB10222C49002007F089F82E48B1
:108BF000016B0120FFF7A0FE2B48416B0120FFF71E
:108C0000DBFC294A516B106BFBF7B9FB2649486422
:108C10000846416C0120FFF799FD0020FFF78EFC0C
:108C200004200190012201A91A2007F0C1F80024B4
:108C300001E0601CC4B2202CFBDB0120FEF732FAFD
:108C4000002405E01948007813490855601CC4B297
:108C5000202CF7DB1648007820B110211548FFF7CB
:108C60002AF803E010211348FFF723F808200090AA
:108C700001226946192007F06FF80D480078FEF7C9
:108C80004BFA7CBD0000204100004040020800205B
:108C900003080020040800202C2F002000100140B1
:108CA000E8210020F8200020702100200608002084
:108CB00058000020000C0140F8B507460C46154648
:108CC00000262CB90421384604F05AFB009004E039
:108CD0000421384604F0B8FB00900120A840C6B239
:108CE000F043C6B29DF80000304000902CB901223C
:108CF0006946384607F030F804E0012269463846F4
:108D000007F056F8F8BDF8B506460C4615462CB9DE
:108D10000421304604F034FB009004E00421304686
:108D200004F092FB00900120A8409DF80010084339
:108D3000C0B200902CB901226946304607F00CF809
:108D400004E001226946304607F032F8F8BD00BF62
:108D5000FEE7000010B519490322486818A109F080
:108D6000EFFE30B10E201749087001201649087037
:108D700023E012490322486814A109F0E1FE30B152
:108D80000C201049087001200F49087015E00B49AC
:108D9000032248680EA109F0D3FE30B10D20094925
:108DA000087001200849087007E00620094908708A
:108DB0000120094908700949087010BD2C2E0020B7
:108DC0004348310055000020520000204348320043
:108DD0004348330003000020040000205700002017
:108DE00010B545F2555000F027F8002000F018F8B3
:108DF000012000F01BF800F00BF800F001F810BDA6
:108E00004CF6CC400149086070470000003000403B
:108E10004AF6AA200149086070470000003000406F
:108E200001494860704700000030004001498860F7
:108E300070470000003000400149086070470000A2
:108E40000030004010B518480068047A022C01D0A8
:108E5000042C05D1FEF76CFA13480068047A1CE074
:108E6000062C19D110480068407805280ED10E480C
:108E70000068007800F07F0040B90B490968C878A5
:108E800005F006FC09490968086A8047084909682D
:108E900088688047082400E00824034909680C72A8
:108EA00003F08AFB10BD0000100900201C090020FF
:108EB0001409002008B501217C2003F057FD1E2075
:108EC000ADF8000010208DF8030003208DF802009B
:108ED00069462348FEF710FE40F61C00ADF800007E
:108EE00004208DF8030003208DF8020069461D4818
:108EF000FEF702FE48F2E140ADF8000003208DF8D5
:108F0000020004208DF8030069461548FEF7F4FDC1
:108F10000120ADF800008DF8020004208DF8030058
:108F200069460F48FEF7E8FD4FF4E050ADF8000049
:108F300001208DF8020004208DF8030069460A48DC
:108F4000FEF7DAFD8020ADF8000003208DF8020066
:108F500004208DF8030069460348FEF7CDFD08BDE7
:108F60000014014000180140001001407CB50820A9
:108F70000090FC48007802285FD1FB480078032865
:108F80005BD0FA4800781B2101EB4000C6B2F848DC
:108F9000F6490978405C0190F648007801281AD11A
:108FA000F5480078B8B9F5480078012813D10020B9
:108FB000F2490870ED48007810B91020009001E0E7
:108FC000002000900120EE490870012269463046D9
:108FD00006F096FE7CBDE748007898B9E648007830
:108FE00001280FD1E548007801280BD10020E34982
:108FF00008700120E2490870012201A9304606F0FC
:109000007FFEE7E7DF480078012816D10020DD4920
:10901000087007F0B9FC0120D9490870002401E06C
:10902000601CC4B2022CFBDB0222D1491B2006F0DB
:1090300067FE0020D3490870CCE7CB4800780328AE
:109040007ED1D148007828B10020CF490870012096
:10905000CE490875CE48007810B9CE48057801E0B1
:10906000CD480578012D6CD1CC48007838B1CB487B
:109070000078042803D0C9480078052802D10020D0
:10908000009001E008200090C448007804283ADAF3
:10909000C24800784006060EC148C0490978405CC5
:1090A0000190B448007801280AD1B348007838B953
:1090B0000120BC49087001226946304606F0F4FDE3
:1090C000AC48007858B9AC480078012807D1002096
:1090D000B4490870012201A9304606F0E5FDB14807
:1090E000007801280ED1A44800780028FAD1A148C0
:1090F00000780028F6D1AB490870012201A930465A
:1091000006F0D2FD23E3A5480078001F4006060EB6
:10911000A2480078001FA449085C01909548007897
:1091200001280AD19448007838B901209D49087077
:1091300001226946304606F0E3FD8E48007801E0E2
:10914000E8E020E058B98C480078012807D10020D9
:1091500094490870012201A9304606F0D1FD9148DA
:1091600000780128CED1844800780028CAD18148EF
:1091700000780028C6D18B490870012201A9304629
:1091800006F0BEFDE3E2022DBCD188480078052838
:1091900003D086480078042802D10020009001E026
:1091A000082000908148007804283CDA7F48007845
:1091B000092101EB4000C6B27D487C490978405C3A
:1091C00001906C48007801280AD16B48007838B9C2
:1091D00001207849087001226946304606F064FD96
:1091E0006448007858B964480078012807D1002005
:1091F00070490870012201A9304606F055FD6D48FE
:1092000000780128BED15C4800780028BAD15948BE
:1092100000780028B6D167490870012201A93046BC
:1092200006F042FD93E261480078001F082101EB3F
:109230004000C6B25D480078001F5F49085C01909D
:109240005A480078062817D15048407B50B19DF805
:10925000040040F0080001909DF8000040F0080074
:10926000009009E09DF8040020F0080001909DF8AE
:10927000000020F0080000904C480078072817D123
:109280004248407B50B19DF8040020F00800019056
:109290009DF8000020F00800009009E09DF804000F
:1092A00040F0080001909DF8000040F00800009098
:1092B0003048007801280AD12F48007838B90120B9
:1092C0003C49087001226946304606F019FD2948DC
:1092D000007858B928480078012807D1002035497E
:1092E0000870012201A9304606F00AFD31480078D5
:1092F000012897D120480078002893D11D48007894
:1093000000288FD12B490870012201A9304606F0B0
:10931000F7FC1CE21E48007800287DD11D4800782B
:1093200001287AD1254800784006060E1C482349BA
:109330000978405C01900F48007801284CD10E4814
:109340000078E8BB0D480078012845D100200B4982
:1093500008700120134908701848007888BB002065
:10936000009031E006000020020000204C000020A8
:10937000F0070020300000203100002032000020E3
:10938000530000203C00002040000020E422002088
:1093900005000020380000203A0000205000002086
:1093A000E807002070000020EC070020510000209A
:1093B000F207002071000020F60700204A0000207C
:1093C0000AE0FFE7082000900120E249087001222E
:1093D0006946304606F068FCDF480078A0B9DF48EF
:1093E0000078012810D1DE48007801280CD1002037
:1093F000DB490870DB4908700120D649087001225A
:1094000001A9304606F050FCD748007801281BD14E
:109410000020D549087001E073E016E007F0B4FAC7
:109420000120CC490870002409E0D048005D01907B
:109430006000012201A906F037FC601CC4B2042CB4
:10944000F3DB0020C849087081E1C9480078022890
:10945000FAD1C8480078092101EB4000C6B2C648DD
:10946000C4490978405C0190BB480078012813D1B9
:10947000BA48007880B9BA48007801280CD1002099
:10948000B74908700120BD490870B249087001222F
:109490006946304606F008FCAF480078A0B9AF48EE
:1094A0000078012810D1AE48007801280CD10020A6
:1094B000AB490870B14908700120A6490870012223
:1094C00001A9304606F0F0FBA74800780128BBD17F
:1094D00007F05AFA0020A449087001209D4908703D
:1094E00000240BE0A448005D0190092101EB440039
:1094F000012201A906F0D8FB601CC4B2042CF1DBE8
:1095000025E19F48007801285CD19E4800784006FC
:10951000060E9D489B490978405C01908E48007872
:1095200001281CD18D480078C8B98D4800780128E1
:1095300015D100208A49087092480078012802D18C
:109540000820009001E00020009001208F49087061
:109550008049087001226946304606F0D1FB7E48FA
:109560000078A0B97D480078012810D17C480078A7
:1095700001280CD100207A49087084490870012024
:1095800074490870012201A9304606F0B9FB7648FB
:1095900000780128B4D100207349087007F0F4F96D
:1095A00001206C490870002409E07748005D0190B3
:1095B0006000012201A906F0A3FB601CC4B2042CC8
:1095C000F3DBC4E06E48007802287DD17048007853
:1095D000082101EB4000C6B26E486D490978405C35
:1095E00001906B48007802281DD16B48407B50B138
:1095F0009DF8040040F0080001909DF8000040F044
:109600000800009009E09DF8040020F00800019097
:109610009DF8000020F0080000909DF804005D49CE
:109620005B4A127888545A48007803281DD15A485A
:10963000407B50B19DF8040020F0080001909DF897
:10964000000020F00800009009E09DF8040040F0C0
:10965000080001909DF8000040F0080000909DF87F
:1096600004004C494A4A127888543B480078012843
:1096700013D13A48007880B93948007801280CD1D4
:1096800000203749087001204049087031490870AE
:1096900001226946304606F033FB2F480078B0B906
:1096A0002E480078012812D12D48007801280ED1CB
:1096B00000202B49087035490870012025490870A1
:1096C000012201A9304600E041E006F019FB2648DE
:1096D000007801283BD107F057F901201D49087097
:1096E00000202149087000242FE02A48005D0190E5
:1096F000022C01D0032C19D12748407B58B12548B2
:10970000807840F00800234988700846C07820F02F
:109710000800C8700AE01F48C07840F008001D49E2
:10972000C8700846807820F0080088701948005DED
:109730000190012007490870082101EB4400012233
:1097400001A906F0DDFA601CC4B2042CCDDB00BF19
:1097500040E40000530000203000002031000020D1
:1097600032000020700000203C000020E8070020AC
:10977000380000204D000020F2070020710000207A
:109780003A0000204B000020EC070020720000206F
:109790004E000020F6070020E422002008B5012139
:1097A0007C2003F0E3F84FF40740ADF800001020F0
:1097B0008DF8030003208DF8020069461D48FEF76E
:1097C0009BF94FF4E360ADF8000010208DF8030022
:1097D00003208DF8020069461748FEF78DF9D02066
:1097E000ADF8000010208DF8030003208DF8020072
:1097F00069461248FEF780F94FF47040ADF800005A
:1098000010208DF8030003208DF8020069460C48F3
:10981000FEF772F94FF4C060ADF8000010208DF82B
:10982000030003208DF8020069460648FEF764F93C
:1098300008BD000000080140000C0140001001407C
:109840000014014000180140FEB5002504E000208E
:109850000DF80500681CC5B20A2DF8DB002056493A
:10986000087056480078002850D0002053490870EE
:1098700053480078F0B95348007870B152480468F2
:109880002146684608F0E2FA6846FAF70CFD06B28F
:10989000314668460BF0C2FF8CE00021684608F0B4
:1098A000D5FA6846FAF7FFFC06B2314668460BF077
:1098B000B5FF7FE04248007801281ED14348007878
:1098C00070B1434804682146684608F0BFFA68460C
:1098D000FAF7E9FC06B2314668460BF09FFF69E0F3
:1098E0000021684608F0B2FA6846FAF7DCFC06B2D6
:1098F000314668460BF092FF5CE00620354908705F
:1099000001202D4908703449087053E0334903227F
:10991000486833A109F014F9F0B12C48007870B10F
:109920002B4804682146684608F090FA6846FAF722
:10993000BAFC06B2314668460BF070FF3AE00021EF
:10994000684608F083FA6846FAF7ADFC06B231467D
:1099500068460BF063FF2DE020490322486821A1EF
:1099600009F0EEF8F0B11748007870B116480468B5
:109970002146684608F06AFA6846FAF794FC06B28F
:10998000314668460BF04AFF14E00021684608F0B3
:109990005DFA6846FAF787FC06B2314668460BF076
:1099A0003DFF07E006200B490870012002490870BE
:1099B00009490870FEBD00000400002012020020CA
:1099C00006000020B0000020D0000020B1000020E0
:1099D000D400002003000020570000202C2E00207F
:1099E0004348320043483100FEB5002404E0002023
:1099F0000DF80400601CC4B20A2CF8DB00205949A1
:109A000008705948007800284DD000205649087049
:109A10005648007818BB5648007898B155480168F8
:109A200055480068FAF7ABFC06463146684608F030
:109A30000DFA6846FAF737FC05B2294668460BF07E
:109A4000EDFE8EE00021684608F000FA6846FAF75D
:109A50002AFC05B2294668460BF0E0FE81E0474843
:109A6000007898B14648016846480068FAF787FCD4
:109A700006463146684608F0E9F96846FAF713FCED
:109A800005B2294668460BF0C9FE6AE00021684627
:109A900008F0DCF96846FAF706FC05B22946684684
:109AA0000BF0BCFE5DE038490322486837A109F09D
:109AB00047F818B33148007898B131480168314807
:109AC0000068FAF75CFC06463146684608F0BEF9C5
:109AD0006846FAF7E8FB05B2294668460BF09EFE99
