:020000040800F2
:10000000C832002045010008FD3F00087134000897
:10001000C93E00085D15000839780008000000009E
:10002000000000000000000000000000DD6E00087D
:100030000921000800000000AB01000865760008F7
:100040005F0100085F0100085F010008F564000817
:100050005F0100085F0100085F0100085F01000800
:100060005F0100085F0100085F0100085F010008F0
:100070005F0100085F0100085F0100085F010008E0
:100080005F0100085F0100085F0100085F010008D0
:10009000377800085F0100085F0100085F01000871
:1000A0005F0100085F0100085F0100085F010008B0
:1000B0005F0100085F0100085F0100085F010008A0
:1000C0005F0100085F0100085F0100085F01000890
:1000D0005F010008617700085F0100085F01000808
:1000E0004D2100085F0100085F0100085F01000862
:1000F0005F0100085F0100085F0100085F01000860
:100100005F0100085F0100085F0100085F0100084F
:100110005F0100085F0100085F0100085F0100083F
:100120005F0100085F0100085F0100085F0100082F
:10013000DFF80CD000F0C6FC0048004781970008AB
:10014000C83200200648804706480047FEE7FEE721
:10015000FEE7FEE7FEE7FEE7FEE7FEE7FEE7FEE777
:10016000E176000831010008EFF3108072B67047A5
:1001700080F3108870471D484FF0FF010170002088
:1001800080F309881A48012101701A484FF0805104
:10019000016062B6FEE717484FF08051016070477A
:1001A00014484FF080510160704772B6EFF3098038
:1001B00028B1203880E8F00F0F490968086000B5C1
:1001C0000E4880475DF804EB0D480E490A7802702E
:1001D00009480D490A680260106890E8F00F203065
:1001E00080F309884EF0040E62B6704722ED00E0FD
:1001F000D201002004ED00E0D80100209D4A000853
:10020000C7010020C8010020E001002072B670473D
:1002100062B67047EFF3108072B6704780F31088B3
:100220007047B0FA80F0704790FAA0F0704730BF86
:10023000704720BF7047F0B480EA0102D40F42003B
:10024000B2EB410F02D20246084611464A0042D0A4
:10025000C30DDDB2C1F3C752AD1A202D35DAC1F39B
:10026000160141F4000204B15242C5F1200602FA1F
:1002700006F12A411044B3EBD05F23D0C4B1012D65
:10028000A0EBC35009DCF0BC4FF0004202EAC352BD
:10029000DBB200F5000000F072BB400000F180709E
:1002A00000EBC350A0F1807040EAD170490009E032
:1002B000490841EAC071A0EBC35000F500004008B6
:1002C00000EBC350F0BC00F051BB6142012202EBD5
:1002D0004101001BF6E7F0BC704781F00041AAE73E
:1002E00080F00040A7E780EA010210B502F0004369
:1002F000400022D04A001FD0010E01EB1261C0F372
:100300005600C2F3560240F4000042F40002A0FB83
:10031000022000047F39140400D0401C50EA12402F
:1003200001D44000491EC2B20C0604EBD010401CA0
:100330004008802A02D003E0002010BD20F0010018
:10034000002900DA0020184310BD30B480EA010211
:1003500002F0004530F0004221F0004013D090B18F
:10036000C30DD40DC2F31601C0F31600E41A41F414
:10037000000140F400027D34914201D3641C00E08E
:100380004900002C02DA30BC002070474FF4000016
:100390000023914201D3891A034340084FEA4101E7
:1003A000F7D151B1914202D14FF0004105E002D2A4
:1003B0004FF0010101E06FF0010103EBC45028444C
:1003C00030BC00F0D3BA2DE9FE4F804681EA03002D
:1003D000C00F0C46009021F0004123F00045B8EB1F
:1003E0000200A94105D24046214690461C460B46D4
:1003F000024623F00040104347D0270DC7F30A0000
:10040000C3F30A510290401A019040286BDAC3F3FB
:10041000130040F4801B0098924620B10023D2EBD9
:10042000030A63EB0B0B01985946C0F1400250469A
:1004300000F02DFA06460D4650465946019A00F046
:1004400035FA10EB08006141002487EA115284EA72
:10045000E7731A4340D0009A62B3019A012A4FEA27
:10046000075215DC001B61EB02014FF0004202EA6B
:100470000752CDE90042001C41F5801132462B465F
:1004800000F0BAFA03B0BDE8F08F40462146F9E724
:10049000001B61EB0201001C41F5801300185B4159
:1004A0002018A2F5001747EB030140EAD570B619F2
:1004B0006D4111E06D084FEA360645EAC0754FEA16
:1004C0000752001B61EB0201001C41F58011490835
:1004D0004FEA30000019514132462B4603B0BDE8C7
:1004E000F04F00F07ABA0098012240000023D0EBD0
:1004F000020263EBE073009821464FEAE074B8EB28
:10050000000061EB0401E9E783F000435BE781F061
:10051000004158E72DE9FE4F81EA030404F000444E
:1005200021F0004100944FF0000B23F0004350EA0B
:1005300001045ED052EA03045BD0C3F30A54C1F352
:100540000A552C44A4F2F3340194A0FB0254C1F3E5
:10055000130141F48011C3F3130343F4801301FB2F
:10056000024400FB034E840A970A44EA815447EA96
:100570008357A4FB076802958D0A05FB07854FEAA0
:10058000932C04FB0C542705029D4FEA065847EABA
:100590001637B5EB08056EEB070C870E920E47EA8F
:1005A000811742EA8312A7FB0201B6EB0B0164EB51
:1005B00000042B0D43EA0C335E1844EB1C50DA4662
:1005C0005146E7FB0201C5F313044FEA0B3343EA3C
:1005D00014534FEA0432019C43EA0603A4F10C04CD
:1005E0000294009CCDE900B400F006FA03B0BDE827
:1005F000F08F00200146F9E72DE9F04D81EA030470
:1006000004F0004B21F0004514464FF0000A23F09F
:10061000004150EA050220D054EA01021DD0C5F382
:100620000A570246C5F31303C1F31300C1F30A5678
:1006300040F4801543F48013A7EB0608101BD64640
:1006400008F2FD3873EB050002D308F1010801E060
:1006500092185B41B8F1000F03DA00200146BDE8B3
:10066000F08D00204FF48011064684460EE0171BE3
:1006700073EB050705D3121B63EB050306434CEA36
:10068000010C49084FEA300092185B4150EA01071B
:10069000EDD152EA030012D082EA040083EA050198
:1006A000084305D0101BAB4106D20122002306E00F
:1006B00000224FF0004302E06FF0010253101AEBEA
:1006C00006004CEB085110EB0A0041EB0B01BDE8B2
:1006D000F04D00F082B9C10F80EAE0700844CA070B
:1006E0009623002100F04BB996230022114600F01A
:1006F00046B920F00040C10DC0F3160040F40000E0
:100700007F2901DA00207047962903DCC1F19601A8
:10071000C840704796398840704700F0004230F07A
:1007200000400AD0C10D01F56071C0F3160042EA25
:100730000151C2084007114370470020014670472D
:1007400030B5041E71F1000404DB4FF00044404258
:1007500064EB0101141E73F1000405DB1C464FF02D
:100760000043524263EB04038B4208BF824230BD18
:1007700030B5041E71F1000404DB4FF00044404228
:1007800064EB0101141E73F1000405DB1C464FF0FD
:100790000043524263EB0403994208BF904230BDCC
:1007A00001F0004330B421F0004150EA010206D0CC
:1007B0000A0DA2F56072C1F31301002A02DC30BCFD
:1007C00000207047440F44EAC104C100E01830BC67
:1007D00000EBC25000F0CAB8002801DBC0F10040B5
:1007E000002901DBC1F1004181427047002801DB93
:1007F000C0F10040002901DBC1F10041884270478F
:1008000030B50B46014600202022012409E021FAE0
:1008100002F59D4205D303FA02F5491B04FA02F5DD
:100820002844151EA2F10102F1DC30BD2DE9F05F74
:100830000546002092469B4688460646814640244F
:100840001BE0284641464746224600F04DF95346F4
:100850005A46C01A914110D311461846224600F05C
:1008600016F82D1A67EB01084F4622460120002199
:1008700000F00DF817EB00094E41201EA4F1010411
:10088000DFDC484631462A464346BDE8F09F202A31
:1008900004DB203A00FA02F1002070479140C2F1D7
:1008A000200320FA03F3194390407047202A06DB07
:1008B000CB17203A41FA02F043EAE07306E041FA2E
:1008C00002F3D040C2F1200291400843194670471C
:1008D0000FB4002300B589B00CA900910B996FF0FB
:1008E0000042CB601E4B06931E4B07930423CDE9B9
:1008F00001321D4A089202466B46002000F08AF938
:1009000009B05DF814FB70B586B006464FF0FF30B5
:100910000091CDE90101002015460C4604903246B5
:10092000694604A8FFF7D4FF03460498211825B1AF
:1009300008B10A4600E022462A6000280DD0002BAC
:1009400002DD0098884208D0081B0094CDE901041C
:100950003246694604A8FFF7BBFF06B070BD000031
:100960004D0E00086B0E0008090B00080029A8BFF7
:100970007047401C490008BF20F00100704710B4C8
:10098000B0FA80FC00FA0CF050EA010404BF10BC7D
:10099000704749B1CCF1200421FA04F411FA0CF1AA
:1009A00018BF012121430843A3EB0C01CB1D4FEAE3
:1009B00000614FEA102042BF002010BC704700EBDE
:1009C000C35010440029A4BF10BC7047401C49000C
:1009D00008BF20F0010010BC704710B5141E73F161
:1009E000000408DA401C41F1000192185B411A43EF
:1009F00001D120F0010010BD2DE9F04D92469B463B
:100A000011B1B1FA81F202E0B0FA80F220329046E0
:100A1000FFF73DFF04460F4640EA0A0041EA0B019A
:100A200053465A46084313D0114653EA010019D0E1
:100A3000C8F14002504600F057F805460E465046B1
:100A400059464246FFF723FF084305D0012004E042
:100A500020463946BDE8F08D0020054346EAE076A1
:100A60002C4337430A986305E40AA0EB08000022F0
:100A7000FD0A44EA47540A3002D500200146E9E75E
:100A8000010510196941DDE9084500196941BDE812
:100A9000F04DA2E7C1F30A52C1F3130140F2FF3354
:100AA00041F480119A4202DA00200146704740F278
:100AB00033439A42A2F2334202DC524200F014B8AD
:100AC000FFF7E5BE064C074D06E0E06840F0010385
:100AD00094E8070098471034AC42F6D3FFF72CFB9C
:100AE00024BB000844BB0008202A04DB203A21FA7A
:100AF00002F00021704721FA02F3D040C2F1200237
:100B00009140084319467047C0B24FF4F05100F0CD
:100B1000BDB900002DE9FF4F087881B09946FF2844
:100B200005D0491C2D2804D00024002308E0002310
:100B30000BE00124F9E703EB830300EB4303491CBB
:100B40000878FF28F7D104B15B42002000901478A8
:100B500001462D2C01D02B2C04D1521C2D2C12D04F
:100B60000024009400251678FF2E0ED00A24A0FB46
:100B700004C801FB0481002700FB0711521C16EB7F
:100B80000C006941EFE70124EBE7994450EA0102C8
:100B90000ED00024AA4D2646DFF8A88200F08AF97C
:100BA00082468B46B9F1000009DAC9F100071BE063
:100BB00001980021C0E9001105B0BDE8F08F07469B
:100BC00012E0F80707D022462B4630464146FFF791
:100BD000A1FC0646884622462B4610461946FFF7DA
:100BE00099FC04460D467F10002FEAD1B9F1000FA1
:100BF000324643465046594602DAFFF7FDFC01E013
:100C0000FFF788FC009A0AB181F00041019AC2E91D
:100C10000001D1E72DE9FF4F1F468DB0D7E901460E
:100C20004FF0FF382E2045464FF000090B90B96970
:100C30006D1C0E988847396A824688470028F6D18D
:100C4000BAF1FF3F0AD024F4D064002E11DDBAF1CE
:100C50002B0F08D0BAF12D0F0BD102E0404611B096
:100C6000ABE744F48064B9696D1C0E9888478246EE
:100C7000761E6946600501D52D2000E02B208DF8F9
:100C8000000001F1010B0DF1200809E0B9696D1CAC
:100C90000E98884782460F9844F40074761E0560CB
:100CA000002E02DDBAF1300FF0D00B998A453ED10B
:100CB00044F0800406E00F99681CA9F1010944F48E
:100CC00000740860B9696D1C761E0E9888478246CC
:100CD0003028F0D02BE00B998A4505D1200603D4AB
:100CE00044F08004761E18E0504606F0ADFF08B3CD
:100CF0000DF11301761E44F400748B4508D2AAF15D
:100D000030000BF8010B200607D5A9F1010003E024
:100D1000200602D409F101008146A00502D50F99F1
:100D2000681C0860B9696D1C0E9888478246002EC1
:100D3000D1DC53E0002E51DDBAF1650F02D0BAF1DB
:100D4000450F4BD1A00549D5B9696D1C24F44074F9
:100D5000761E0E9888478246002E0CDD2B2804D084
:100D6000BAF12D0F07D144F48074B9696D1C0E9847
:100D700088478246761EE00501D52D2100E02B2113
:100D800008F8011BCDF82C8021E00DF12901761E19
:100D900044F4007488450CD2AAF1300010F0FF0032
:100DA00088F8000002D10B99884509D908F101089B
:100DB00006E0E00501D5244801E042F20F708146CB
:100DC000B9696D1C0E98884782460F980560002E01
:100DD00004DD504606F038FF0028D6D1F9690E9898
:100DE0008847FF208BF8000088F80000002006905C
:100DF00007904B466A4608A906A8FFF78BFEA00598
:100E000002D46FF001002AE714F0240F0AD0E007A3
:100E100014D1DDE906123868031D3B600068C0E9A3
:100E200000120BE0DDE90601FFF7BAFC0146E0071E
:100E300004D13868021D3A600068016028460EE758
:100E4000000024400000F03FF1D8FFFF426842B1AB
:100E5000016811F8013B23B1521EC0E90012184687
:100E600070470121C160881E704742685AB1C3684B
:100E7000016843B983688B4205D0491E521CC0E902
:100E80000012002070474FF0FF3070477F2801D9D3
:100E9000002208E0064A02EB5002C007127800D197
:100EA000120902F00F020120904008407047000034
:100EB000E4BA00080EB540F2334202920022CDE9B6
:100EC00000221346FFF798FD03B000BD30B58C1823
:100ED00010F8012B12F00F0301D110F8013B120999
:100EE00006D110F8012B03E010F8015B01F8015B5B
:100EF0005B1EF9D101E001F8013B521EFBD1A1427A
:100F0000E6D3002030BD000038B5044601216C2036
:100F100005F054F9F020ADF8000010208DF8030022
:100F200003208DF802006946384801F0CDFA4FF6EB
:100F30002000ADF8000010208DF8030003208DF88C
:100F400002006946324801F0BFFA4020ADF80000C7
:100F500003208DF8020004208DF8030069462B4819
:100F600001F0B2FA4FF48040ADF8000003208DF894
:100F7000020004208DF803006946254801F0A4FA18
:100F80003120ADF8000010208DF8030003208DF80B
:100F9000020069461F4801F097FA4FF48070ADF8DF
:100FA000000010208DF8030003208DF80200694630
:100FB000184801F089FA4FF41060ADF800001020D5
:100FC0008DF8030003208DF802006946124801F0F5
:100FD0007BFA4FF480710F4801F00AFB4FF4006177
:100FE0000B4801F007FB4FF40051094801F000FBEA
:100FF0002021064801F0FCFA4FF48051044801F02A
:10100000F9FA1021014801F0F5FA38BD0008014055
:10101000000C014000180140001401402DE9F05F70
:1010200005464FF0000B0120384908700DB98526A0
:1010300000E0B5264FF48051354801F0D9FA002080
:1010400034490870782001F070F8304600F0E2F87A
:101050008B2000F0DFF8304600F0DCF88B2000F049
:10106000D9F8782001F061F84FF48051284801F058
:10107000C1FA082000F01EFF4FF48051244801F00F
:10108000B7FA782001F051F8304600F0C3F88046F6
:101090008B2000F0BFF88146304600F0BBF80746D1
:1010A0008B2000F0B7F804465DB9052F05D18A2CD6
:1010B00003D10020184908700EE00120164908707D
:1010C0000AE0352F05D18A2C03D10020124908707F
:1010D00002E0012010490870782001F026F84FF452
:1010E00080510B4801F086FA09EB082A094800787C
:1010F00028B1012008490870002006490870002026
:10110000024908705046BDE8F09F00001101002020
:10111000000C0140410000200C0100202DE9F05F8F
:1011200005464FF0000B0120364908700DB98526A1
:1011300000E0B5261021344801F05AFA0020334966
:101140000870782000F0F1FF304600F0A3F88B2003
:1011500000F0A0F8304600F09DF88B2000F09AF8DF
:10116000782000F0E2FF1021274801F043FA082020
:1011700000F0A0FE1021244801F03AFA782000F097
:10118000D4FF304600F086F880468B2000F082F8CD
:101190008146304600F07EF807468B2000F07AF852
:1011A00004465DB9052F05D18A2C03D100201849CA
:1011B00008700EE00120164908700AE0352F05D1AD
:1011C0008A2C03D100201249087002E00120104946
:1011D0000870782000F0A9FF10210B4801F00AFAEE
:1011E00009EB082A0948007828B10120084908704D
:1011F0000020064908700020024908705046BDE8EA
:10120000F09F000011010020000801404100002073
:101210000C0100202DE9F04105462E46002731E063
:101220006006040E06F0800028B14FF40041184813
:1012300001F0E0F904E04FF40041154801F0D8F95D
:10124000012000F037FE4FF40051114801F0D2F9AF
:10125000012000F02FFE4FF480410D4801F0BFF94E
:1012600008B144F00104012000F024FE4FF40051C5
:10127000074801F0BDF9012000F01CFE7006060EC3
:10128000781CC7B2082FCBDB2046BDE8F0810000F8
:10129000000C01402DE9F04105462E4600272CE0C8
:1012A0006006040E06F0800020B18021154801F090
:1012B000A1F903E08021134801F09AF9012000F020
:1012C000F9FD20210F4801F095F9012000F0F2FD11
:1012D00040210C4801F083F908B144F001040120D9
:1012E00000F0E8FD2021074801F082F9012000F01C
:1012F000E1FD7006060E781CC7B2082FD0DB204631
:10130000BDE8F0810008014010B54FF4805111484C
:1013100001F070F91021104801F06CF9012000F083
:10132000C9FD4FF400510B4801F062F920210A4831
:1013300001F05EF9012000F0BDFD4FF400410548C9
:1013400001F056F98021044801F052F9012000F023
:10135000B1FD10BD000C01400008014000B587B090
:101360009DF818000690032000214FF480720A4B6C
:10137000CDE90132CDE9031006200346074A00906B
:10138000074803F0DFF9069006AA06A1062003F03D
:1013900043FA07B000BD0000C0130020BC170020B6
:1013A00095B100085461736B204D6561737572656A
:1013B00000000000704710B5FFF7D0FF00F01CF8E8
:1013C00010BD10B50446204603F086FE10BD7047E0
:1013D00003F0DEFF03F036F9FFF7EDFF00BFFF205B
:1013E00003F0FEFAFBE7704710B503F07DFE10BD79
:1013F00010B503F091FE10BD08B59DF800000090F7
:101400000423184A0021184803F048F900906A465E
:1014100016A1042003F000FA0323174A00211748FD
:1014200003F03CF900906A4615A1032003F0F4F99B
:101430000523174A0021174803F030F900906A4647
:1014400015A1052003F0E8F90223164A00211648E9
:1014500003F024F900906A4614A1022003F0DCF99D
:1014600008BD00006C05002011AF00085461736BCB
:10147000204D61696E0000006C090020BDAD0008C0
:101480005441534B20204D657373616765730000B1
:101490006C0D0020D19B00085461736B204469736C
:1014A000700000006C11002005AC00085461736BE3
:1014B000205343414E00000010B50446094800780F
:1014C00070B10120084908700102084801F092F843
:1014D000052000F0E1FC4FF48071044801F088F829
:1014E00010BD00004600002041000020001801400F
:1014F00010B504464FF48071054801F07BF80520D3
:1015000000F0CAFC4FF48071014801F071F810BD81
:101510000018014010B5012004F060FE002004F026
:101520005DFE10BD08B50146002000900348009004
:101530000098084400900098008808BD006C0040A6
:1015400008B500220092044A0092009A02440092D8
:10155000009A116008BD0000006C004000BFFEE76B
:101560002DE9FE4300200090019002906A49087026
:101570006A4908706A490870FFF750FD0446FFF792
:10158000AAF8684908600846006867490860674922
:1015900064480068FFF72AF902D200206149086018
:1015A0005E480078012803D15D490870BDE8FE83DC
:1015B00000215C480068FFF70FF900D2F6E7FEF75C
:1015C000D3FD8046594957480068FEF7BEFE0446E1
:1015D0005749FEF788FE57490860574881685548C3
:1015E0000068FEF780FE04465348C1682046FEF7B7
:1015F00022FE524908604F480068514908604F4830
:101600000068FFF78AF804464E4A4F4BFFF798F8F8
:1016100002D20020494908604046FEF7A9FD00209B
:101620003E4908703E4908700120FFF7F7FC044668
:10163000FFF751F83B4908603C493A480068FFF71A
:10164000D5F802D2002037490860344800780128D4
:1016500002D133490870A9E7FEF786FD8046334979
:1016600030480068FEF771FE8146FFF756F80646DF
:10167000364A374BFEF74EFF0446FFF791F82D49E7
:1016800008602D4881692B480068FEF72CFE04464F
:101690002948C1692046FEF7CEFD2E49086025483D
:1016A00000682D4908602B480068FFF736F80446AB
:1016B000244A254BFFF744F802D20120164908704E
:1016C0002648C07840B9002122480068FFF784F816
:1016D00002D200201F49086018480168684607F0D8
:1016E0009BFE684606F054FE0446FFF759F813497E
:1016F000086018480168684607F08EFE684606F0E4
:1017000047FE0446FFF74CF8124908604046FEF7D2
:101710002FFD00BF4AE700000F0100200C01002050
:101720000D010020340100203801002000FEFF469A
:101730000000044240010020B0110020B000002051
:10174000C4000020FCA9F1D24D62403F1283C0CA00
:10175000A1C51A40B8000020CC000020541300207E
:101760002DE9F04105460F464FF4000801212948B4
:1017700000F040FF2021274800F03AFF012000F050
:1017800099FB17B14FF4803400E000244FF6FF704E
:1017900000EA05152C43002622E0012000F08AFB18
:1017A00020211D4800F024FF04EA080020B9802110
:1017B000194800F01DFF03E08021174800F01AFFD0
:1017C000012000F077FB2021134800F013FF0120D7
:1017D00000F070FB2021104800F00AFF6400761C26
:1017E000182EDAD3012000F065FB2021094800F013
:1017F00001FF012000F05EFB0121064800F0F8FE29
:10180000012000F057FB0121024800F0F3FEBDE883
:10181000F0810000001801400008014070B5044646
:101820000D4629462046FFF79BFF70BD2DE9FE4F70
:101830000020009001900290BA490870BA490870DF
:10184000FFF76CFC0546FEF746FFB8490860B8494B
:10185000B6480068FEF7CAFF02D20020B34908600C
:10186000B2480068B3490860AE480078012801D149
:10187000BDE8FE8F0021AF480068FEF7ADFF00D243
:10188000F6E7FEF771FC8146A949AA480068FEF711
:101890005CFD0546A849FEF726FDA84908600846F4
:1018A0000068A7490860A748816AA4480068FEF755
:1018B0001AFD0546A348C16A2846FEF7BCFCA249AA
:1018C000086008460068FEF728FF05469F4AA04BBF
:1018D000FEF736FF02D200209B4908604846FEF71B
:1018E00047FC0120FFF71AFC0546FEF7F4FE994974
:1018F00008608F4997480068FEF778FF02D2002001
:1019000094490860934800688A49086085480078CF
:10191000012800D1ACE7FEF727FC814684498548C1
:101920000068FEF712FD8246FEF7F7FE07468A4A78
:101930008A4BFEF7EFFD0546FEF732FF7F49086050
:1019400008460068864908607E48816B7B480068CD
:10195000FEF7C9FC05467B48C16B2846FEF76BFCC9
:101960008049086008460068FEF7D7FE0546774ABA
:10197000774BFEF7E5FE02D201206B4908707A48EA
:10198000C07840B9002177480068FEF725FF02D2F1
:101990000020744908606C480168684607F03CFD07
:1019A000684606F0F5FC0546FEF7FAFE6649086053
:1019B0006C480168684607F02FFD684606F0E8FCB1
:1019C0000546FEF7EDFE674908604846FEF7D0FB86
:1019D0006548C07800287DD06448007800B147E7AA
:1019E0005148007810B962480078E0B14E4800785C
:1019F00060B15C4801685F480068FEF71CFC054662
:101A00004FF08041FEF7A1FC044618E055480168FC
:101A100058480068FEF70FFC05464FF08041FEF77E
:101A200094FC04460BE04F48016852480068FEF7FA
:101A300002FC05464FF08041FEF787FC04464E4805
:101A40000078D0B92046FEF768FE05464B4A4C4B5D
:101A5000FEF78EFE30D80120474908704949086BCF
:101A60004FF07E51FEF7E7FB05460122114607F0D5
:101A7000F7FC012000F01EFA1EE03F480078012824
:101A80001AD12046FEF749FE05463F4A3F4BFEF776
:101A900057FE11D23E49086B2749FEF79DFE0BD237
:101AA00000203549087037490122086B114607F0BC
:101AB000D7FC012000F0FEF9364800682249086092
:101AC000284801682B480068FEF7B5FB05464FF033
:101AD000804100E016E0FEF738FC26490860084621
:101AE0000068FEF71AFE21F000410546FEF758FE99
:101AF00020490860084600681A49086008460068DE
:101B0000254908601848007918B11A480068154935
:101B100008602248007810B901202149087000BFF0
:101B2000A6E600000C010020100100201401002096
:101B300000FEFF4634010020000004424001002066
:101B4000C8000020B0110020B4000020FCA9F1D290
:101B50004D62403F180100201283C0CAA1C51A403F
:101B6000D0000020BC000020541300200D010020F4
:101B70000F010020B80000203D0100209A9999999A
:101B80009999B93F781200207B14AE47E17A843FDF
:101B900000120020B0000020C000002048000020FB
:101BA0002400002010B550220249034804F014FA22
:101BB00010BD0000B011002000F8010810B500248D
:101BC00018E00E4951F834000D49FEF70FFE06D318
:101BD0000A4951F834000021FEF7FEFD08D84FF005
:101BE0007E50064941F83400002001EBC4014860F2
:101BF000601CC4B2092CE4DB10BD0000B011002051
:101C0000000020412DE9F04105460E4614461F46CE
:101C1000E0B22A46334600F0EFFCBDE8F0810FB495
:101C20007CB5044608990A98FEF757FB0546002143
:101C3000FEF7DCFD0ED807990998FEF74EFB054626
:101C400008990A98FEF749FB06462946FEF77DFBF0
:101C500000900DE009990798FEF73FFB05460A99A9
:101C60000898FEF73AFB06462946FEF76EFB009001
:101C700009990098FEF737FB05460A99FEF730FBF5
:101C80000190DDE90001C4E900017CBC5DF814FBB2
:101C90002DE9F04104460D4616461F460022064B2C
:101CA00020462946FEF74CFDF0B222462B4600F0B6
:101CB0000BFFBDE8F0810000000024402DE9F04159
:101CC00004460F46666B2748844201D1002500E098
:101CD00001252548007828B12248844202D12348B2
:101CE000066810E02248007868B1224884420AD190
:101CF0002148C07810B92048007910B11B48066807
:101D000001E01E480668A07890B11D4800780228BE
:101D10000DD11448844202D11A48007830B11548D8
:101D2000844204D117480078012800D113E012E062
:101D30001348007802280DD10A48844202D1114884
:101D4000007830B10B48844204D10E480078012855
:101D500000D100E000BFA278A9B2304600F014F82C
:101D6000BDE8F081001200209C000020B800002097
:101D70009D0000207812002054130020BC00002099
:101D8000270000200300002070B504460D461646CB
:101D9000E8B2214600F0E0FF70BD00002DE9F041FF
:101DA00005460F464FF400084FF400612D4800F03F
:101DB00021FC4FF480712B4800F01AFC012000F048
:101DC000A4F917B14FF4803400E000244FF6FF70FF
:101DD00000EA05152C43002627E0012000F06AF8F0
:101DE0004FF40051204800F003FC04EA080028B931
:101DF0004FF400411C4800F0FBFB04E04FF40041AD
:101E0000194800F0F7FB012000F054F84FF400519E
:101E1000154800F0EFFB012000F04CF84FF40051A2
:101E2000114800F0E5FB6400761C182ED5D3012084
:101E300000F040F84FF480710A4800F0DBFB01200D
:101E400000F038F84FF40061064800F0D1FB0120A3
:101E500000F030F84FF40061024800F0CBFBBDE821
:101E6000F081000000140140000C014070B50446F0
:101E70000D4629462046FFF791FF70BD40F2FF1145
:101E800005E000BF0A00A1F1010399B2FAD10200F6
:101E9000A0F10100F5D1704741F6FF7105E000BFE8
:101EA0000A00A1F1010399B2FAD10200A0F10100E8
:101EB000F5D1704740F2FF5105E000BF0A00A1F1E3
:101EC000010399B2FAD10200A0F10100F5D17047E7
:101ED00070B504460D46E8B2214600F0DFFC70BD47
:101EE00070B504460D46E8B2214600F0FFFF70BD14
:101EF00038B5044611480078009054B19DF80000B0
:101F000020F0020000909DF8000040F004000090D6
:101F100009E09DF8000040F0020000909DF80000EC
:101F200020F0040000909DF8000004490870012290
:101F300069461C2005F04EFD38BD000066010020FA
:101F400070B50446022534B10948007840F0080015
:101F50000749087005E00648007820F008000449A9
:101F60000870012202491B2005F034FD70BD0000FD
:101F70006701002070B5044602255CB10E48007868
:101F800020F001000C4908700846007820F0040099
:101F900008700AE00848007840F00400064908701C
:101FA0000846007820F001000870012202491B2039
:101FB00005F010FD70BD00006701002070B50446FB
:101FC00002255CB10E48007820F001000C49087031
:101FD0000846007820F0040008700AE008480078FD
:101FE00040F00100064908700846007820F004001F
:101FF0000870012202491B2005F0ECFC70BD0000B6
:102000006701002038B5044614B10D20009001E0AE
:102010000B200090012269461D2005F0DBFC38BD35
:1020200038B5044622480078009054B19DF800006D
:1020300040F0020000909DF8000040F00100009088
:1020400009E09DF8000020F0020000909DF80000DB
:1020500020F0010000909DF8000015490870012251
:102060006946082005F0B6FC12480078009054B18B
:102070009DF8000040F0020000909DF8000040F044
:102080000100009009E09DF8000020F0020000909F
:102090009DF8000020F0010000909DF80000054927
:1020A0000870012269461E2005F094FC38BD00002E
:1020B000640100206501002038B50446114800780D
:1020C000009054B19DF8000040F0010000909DF890
:1020D000000040F00800009009E09DF8000020F0AA
:1020E000010000909DF8000020F0080000909DF88D
:1020F000000004490870012269461C2005F06AFCB2
:1021000038BD000066010020704701B5002008E0DE
:102110000C2100BF0A00A1F10103D9B2FAD1411C80
:1021200088B200998842F3D308BD01B5002008E0C9
:102130000C2100BF0A00A1F10103D9B2FAD1411C60
:1021400088B200998842F3D308BD000010B54FF45F
:10215000006000F019F860B10648007828B9012045
:10216000044908700020044908604FF4006000F042
:1021700005F810BD680000206C00002001490860CF
:102180007047000014040140014600200022074B64
:102190001B6803EA0102054B14331B680B4013B1A3
:1021A0000AB1012000E00020704700000004014057
:1021B00030B5044604254FF4302000F095F805466C
:1021C000042D17D10C48006940F002000A4908614B
:1021D00008464461006940F0400008614FF4302037
:1021E00000F082F805460448006941F6FD71084098
:1021F00001490861284630BD0020024004200B49F7
:10220000C96801F0010109B101200EE00749C96860
:1022100001F0040109B1022007E00449C96801F096
:10222000100109B1032000E00420704700200240A3
:102230000549096821F01001034A11601146096837
:1022400001431160704700000020024078B5064647
:102250000C46042500200090E80200F045F80546F1
:10226000042D24D11348006940F001001149086190
:102270003480E80200F038F80546042D10D1B01C77
:102280000090200C00990880E80200F02DF8054627
:102290000848006941F6FE7108400649086106E0F9
:1022A0000448006941F6FE71084002490861284669
:1022B00078BD00000020024001460020034A10685B
:1022C00000F0380008431060704700000020024012
:1022D0000248034948600348486070472301674546
:1022E00000200240AB89EFCD00B502460423FFF782
:1022F00085FF034603E0FFF781FF0346521E012BD3
:1023000001D1002AF7D102B90523184600BD00000B
:1023100008B501217C2003F051FF40F21D40ADF8CB
:10232000000010208DF8030003208DF8020069469C
:102330005F4800F0C9F802215E4800F05BF94EF2F8
:102340001830ADF8000010208DF8030003208DF840
:1023500002006946584800F0B7F841F68350ADF8DE
:10236000000010208DF8030003208DF8020069465C
:10237000514800F0A9F842F2F030ADF80000032017
:102380008DF8020010208DF8030069464B4800F0DC
:102390009BF84FF2B370ADF8000003208DF80200F7
:1023A00010208DF803006946424800F08DF84FF484
:1023B0001170ADF8000003208DF8020010208DF898
:1023C000030069463E4800F07FF840213C4800F099
:1023D00011F940F60C00ADF8000003208DF8020062
:1023E00004208DF803006946324800F06DF84FF480
:1023F0008051314800F0FEF84FF48071304800F011
:10240000F9F84FF400712E4800F0F4F81021294833
:1024100000F0F0F80121284800F0ECF84FF480714A
:10242000244800F0E5F800F003FF0121234800F004
:10243000E1F801F013FC01F01DF81021204800F034
:10244000D7F808211E4800F0D5F804211C4800F0F8
:10245000D1F802211A4800F0CDF82021174800F0E9
:10246000C7F80121144800F0C3F80221124800F017
:10247000BFF880210F4800F0BBF84FF400710E4800
:1024800000F0B8F880210E4800F0A9F830B904E057
:102490004FF40071084800F0ADF8F9E74021084812
:1024A00000F09DF810B901200649087008BD000031
:1024B0000008014000180140000C014000100140DC
:1024C00000140140180000202DE9F04102460025CB
:1024D0000026002000230024002791F803C00CF000
:1024E0000F0591F803C00CF0100CBCF1000F03D0E5
:1024F00091F802C04CEA050591F800C0BCF1000F4C
:1025000031D0146800202BE04FF0010C0CFA00F3DE
:10251000B1F800C00CEA03069E4220D183004FF0C0
:102520000F0C0CFA03F7BC4305FA03FC4CEA040455
:1025300091F803C0BCF1280F06D14FF0010C0CFA42
:1025400000FCC2F814C00AE091F803C0BCF1480FC7
:1025500005D14FF0010C0CFA00FCC2F810C0401C71
:102560000828D1D31460B1F800C0BCF1FF0F34DDEE
:10257000546800202EE000F1080C4FF0010808FA22
:102580000CF3B1F800C00CEA03069E4221D183008F
:102590004FF00F0C0CFA03F7BC4305FA03FC4CEAAE
:1025A000040491F803C0BCF1280F05D100F1080C18
:1025B00008FA0CF8C2F8148091F803C0BCF1480F77
:1025C00007D100F1080C4FF0010808FA0CF8C2F826
:1025D0001080401C0828CED35460BDE8F08102462C
:1025E000002093680B400BB1012000E000207047F1
:1025F00041617047016170472DE9FE4380461646F0
:102600001F46002404E000209B490855601CC4B20A
:10261000102CF8DB0022994B30463946FEF790F833
:1026200008D2974A974B30463946FEF7A1F801D2B7
:102630000026924F32463B468F4806F001FF0022AB
:102640008E4B30463946FEF77BF852D28E480078E2
:102650008DF8000088488078302190FBF1F201FB72
:102660001200C5B28948405D8DF801008248C078EB
:1026700090FBF1F201FB1200C5B28448405D8DF879
:1026800002007D48007990FBF1F201FB1200C5B217
:102690007E48405D8DF803007748407990FBF1F269
:1026A00001FB1200C5B27948405D8DF80400724804
:1026B000807990FBF1F201FB1200C5B27348405DD6
:1026C0008DF805006C48C07990FBF1F201FB120017
:1026D000C5B26E48405D8DF806006748007A90FBF1
:1026E000F1F201FB1200C5B26848405D8DF80700A9
:1026F00058E061480078302190FBF1F201FB1200B4
:10270000C5B26148405D8DF800005B48807890FB61
:10271000F1F201FB1200C5B25C48405D8DF801008A
:102720005548C07890FBF1F201FB1200C5B2574842
:10273000405D8DF802005048007990FBF1F201FBFA
:102740001200C5B25148405D8DF803004A484079F7
:1027500090FBF1F201FB1200C5B24C48405D8DF8D0
:1027600004004548807990FBF1F201FB1200C5B2EC
:102770004648405D8DF805003F48C07990FBF1F276
:1027800001FB1200C5B24148405D8DF806003A4891
:10279000007A90FBF1F201FB1200C5B23B48405DAC
:1027A0008DF80700B8F1000F39D1002405E01DF8BD
:1027B000040037490855601CC4B2042CF7DB04221E
:1027C0003349092005F0AEF8002406E0201D1DF86D
:1027D000000030490855601CC4B2042CF6DB2E48BA
:1027E000407B58B12B48807840F008002949887018
:1027F0000846C07820F00800C8700AE02548C07874
:1028000040F008002349C8700846807820F008008E
:10281000887004221F49082005F0B0F82AE000243F
:1028200005E01DF804001B490855601CC4B2042CC7
:10283000F7DB1948407B60B19DF8020040F00800CA
:102840008DF802009DF8030020F008008DF80300C9
:102850000BE09DF8030040F008008DF803009DF8A0
:10286000020020F008008DF80200042269460820CA
:1028700005F084F8BDE8FE832C1800200000F03F2E
:1028800096438B6CE7FBEF3F72010020680100204C
:102890005401002058010020541300202DE9FC476A
:1028A00006468946002404E0002080490855601C43
:1028B000C4B2102CF8DB4FF07E514846FDF78CFF78
:1028C0000AD24846FDF729FF0746794A794BFDF7BA
:1028D0004FFF01D24FF07E594846FDF71EFF0746D5
:1028E0003A460B46714806F0ABFD4FF07E51484624
:1028F000FDF772FF50D2704800788DF800006B48E9
:102900008078302190FBF1F201FB1200C5B26B48D8
:10291000405D8DF801006548C07890FBF1F201FB45
:102920001200C5B26548405D8DF802005F4800792D
:1029300090FBF1F201FB1200C5B25F48405D8DF8DB
:1029400003005A48407990FBF1F201FB1200C5B236
:102950005A48405D8DF804005448807990FBF1F2AC
:1029600001FB1200C5B25548405D8DF805004F4887
:10297000C07990FBF1F201FB1200C5B24F48405DF7
:102980008DF806004948007A90FBF1F201FB120035
:10299000C5B24A48405D56E044480078302190FB7B
:1029A000F1F201FB1200C5B24348405D8DF8000012
:1029B0003E48807890FBF1F201FB1200C5B23F481F
:1029C000405D8DF801003948C07890FBF1F201FBC1
:1029D0001200C5B23948405D8DF8020033480079D5
:1029E00090FBF1F201FB1200C5B23348405D8DF857
:1029F00003002E48407990FBF1F201FB1200C5B2B2
:102A00002E48405D8DF804002848807990FBF1F253
:102A100001FB1200C5B22948405D8DF8050023482E
:102A2000C07990FBF1F201FB1200C5B22348405D72
:102A30008DF806001D48007A90FBF1F201FB1200B0
:102A4000C5B21E48405DFEB9002405E01DF8040033
:102A50001B490855601CC4B2042CF7DB04226946EC
:102A6000112004F05FFF002406E0201D1DF8000087
:102A700014490855601CC4B2042CF6DB04226946D4
:102A8000102004F07BFF0EE0002405E01DF8040098
:102A90000C490855601CC4B2042CF7DB04226946BB
:102AA000102004F06BFFBDE8FC8700002C1800200C
:102AB00096438B6CE7FBEF3F72010020680100201A
:102AC0005C010020600100202DE9FE43804616468F
:102AD0001F46002404E0002080490855601CC4B251
:102AE000102CF8DB00227E4B30463946FDF728FEDD
:102AF00008D27C4A7C4B30463946FDF739FE01D27C
:102B00000026774F32463B46744806F099FC002277
:102B1000734B30463946FDF713FE52D273480078A6
:102B20008DF800006D480078302190FBF1F201FB38
:102B30001200C5B26E48405D8DF80100674880788C
:102B400090FBF1F201FB1200C5B26848405D8DF8C0
:102B500002006248C07890FBF1F201FB1200C5B29E
:102B60006248405D8DF803005C48007990FBF1F20B
:102B700001FB1200C5B25D48405D8DF80400574866
:102B8000407990FBF1F201FB1200C5B25748405D5D
:102B90008DF805005148807990FBF1F201FB12009D
:102BA000C5B25248405D8DF806004C48C07990FB94
:102BB000F1F201FB1200C5B24C48405D8DF80700F0
:102BC00058E046480078302190FBF1F201FB1200FA
:102BD000C5B24648405D8DF800004048407890FB03
:102BE000F1F201FB1200C5B24148405D8DF80100D1
:102BF0003A48C07890FBF1F201FB1200C5B23B48A5
:102C0000405D8DF802003548007990FBF1F201FB40
:102C10001200C5B23548405D8DF803002F48407959
:102C200090FBF1F201FB1200C5B23048405D8DF817
:102C300004002A48807990FBF1F201FB1200C5B232
:102C40002A48405D8DF805002448C07990FBF1F2D8
:102C500001FB1200C5B22548405D8DF806001F48F3
:102C6000007A90FBF1F201FB1200C5B21F48405DF3
:102C70008DF80700B8F1000F1FD1002405E01DF802
:102C800004001C490855601CC4B2042CF7DB042264
:102C90001849002004F046FE002406E0201D1DF81F
:102CA000000015490855601CC4B2042CF6DB042250
:102CB0001149002004F062FE0EE0002405E01DF83A
:102CC00004000D490855601CC4B2042CF7DB042233
:102CD0006946002004F052FEBDE8FE832C18002057
:102CE00000002440CBA145B6F3FD2340680100203D
:102CF000720100204C0100205001002038B504462C
:102D00005CB11448807840F0080012498870084689
:102D1000C07820F00800C8700AE00E48C07840F083
:102D200008000C49C8700846807820F008008870B8
:102D3000084880780090012269460C2004F076FE55
:102D40000448C0780090012269460E2004F06EFE0F
:102D500038BD0000580100202DE9FC470646894691
:102D6000002404E0002059490855601CC4B2102C0E
:102D7000F8DB4FF07E514846FDF72EFD0AD248465B
:102D8000FDF7CBFC0746524A524BFDF7F1FC01D24E
:102D90004FF07E5949464D4806F03EFB4FF07E51BC
:102DA0004846FDF719FD26D24B4800788DF8000003
:102DB00046488078302190FBF1F201FB1200C5B249
:102DC0004648405D8DF801004048C07890FBF1F224
:102DD00001FB1200C5B24148405D8DF802003B483E
:102DE000007990FBF1F201FB1200C5B23B48405D57
:102DF0008DF803002CE035480078302190FBF1F28B
:102E000001FB1200C5B23448405D8DF800002F4828
:102E1000807890FBF1F201FB1200C5B22F48405DB3
:102E20008DF801002948C07890FBF1F201FB1200F7
:102E3000C5B22A48405D8DF802002448007990FB15
:102E4000F1F201FB1200C5B22448405D8DF8030089
:102E50007EB9002405E01DF8040021490855601CD6
:102E6000C4B2042CF7DB04226946092004F05AFDA1
:102E70002AE0002405E01DF804001A490855601CEA
:102E8000C4B2042CF7DB1848407B60B19DF8020007
:102E900040F008008DF802009DF8030020F00800C3
:102EA0008DF803000BE09DF8030040F008008DF85A
:102EB00003009DF8020020F008008DF802000422B3
:102EC0006946082004F05AFDBDE8FC872C18002054
:102ED00096438B6CE7FBEF3F7201002068010020F6
:102EE0005401002058010020541300202DE9FC4714
:102EF00006468946002404E000206C490855601C01
:102F0000C4B2102CF8DB6A494846FDF765FC0BD2C9
:102F10004846FDF702FC0746664A674BFDF728FC6A
:102F200012D2DFF88C910FE064494846FDF754FC5B
:102F30000AD24846FDF7F1FB0746614A614BFDF7AF
:102F400017FC01D2DFF874914946584806F064FA3C
:102F500057494846FDF74AFC2DD85448007830219F
:102F600090FBF1F201FB1200C5B25748405D8DF8AD
:102F700000004E48407890FBF1F201FB1200C5B210
:102F80005148405D8DF801004848807890FBF1F28F
:102F900001FB1200C5B24D48405D8DF80200434868
:102FA000007990FBF1F201FB1200C5B24748405D89
:102FB0008DF8030058E041494846FDF70DFC26D244
:102FC000414800788DF8000038480078302190FBA7
:102FD000F1F201FB1200C5B23C48405D8DF80100E2
:102FE0003248807890FBF1F201FB1200C5B23648FE
:102FF000405D8DF802002D48C07890FBF1F201FB96
:103000001200C5B23148405D8DF803002CE027481E
:103010000078302190FBF1F201FB1200C5B22A4882
:10302000405D8DF800002148407890FBF1F201FBF3
:103030001200C5B22548405D8DF801001B48C078DC
:1030400090FBF1F201FB1200C5B21F48405D8DF804
:1030500002001648007990FBF1F201FB1200C5B2A4
:103060001A48405D8DF803007EB9002405E01DF884
:10307000040017490855601CC4B2042CF7DB042275
:103080006946112004F04EFC0EE0002405E01DF816
:10309000040010490855601CC4B2042CF7DB04225C
:1030A0006946102004F06AFCBDE8FC872C1800205B
:1030B0000000C84248E17A14AEFF584000002041A9
:1030C00039B4C876BEFF2340680100207201002099
:1030D0005C010020600100202DE9FC47064689467E
:1030E000002404E000204A490855601CC4B2102C9A
:1030F000F8DB48494846FDF76FFB0AD24846FDF722
:103100000CFB0746444A454BFDF732FB01D2DFF882
:10311000049149463E4806F07FF93E494846FDF78E
:103120005BFB26D23E4800788DF8000038480078D6
:10313000302190FBF1F201FB1200C5B23948405D2D
:103140008DF801003248807890FBF1F201FB12000B
:10315000C5B23348405D8DF802002D48C07890FB21
:10316000F1F201FB1200C5B22D48405D8DF803005D
:103170002CE027480078302190FBF1F201FB12008F
:10318000C5B22748405D8DF800002148407890FB8B
:10319000F1F201FB1200C5B22248405D8DF801003A
:1031A0001B48C07890FBF1F201FB1200C5B21C482D
:1031B000405D8DF802001648007990FBF1F201FBAA
:1031C0001200C5B21648405D8DF803007EB9002498
:1031D00005E01DF8040014490855601CC4B2042C15
:1031E000F7DB04226946002004F09CFB0EE000247B
:1031F00005E01DF804000D490855601CC4B2042CFC
:10320000F7DB04226946002004F0B8FBBDE8FC8728
:103210002C18002000002041CBA145B6F3FD23402F
:1032200068010020720100204C01002050010020A4
:1032300008B501211C2002F0C1FF0420ADF80000F8
:1032400014208DF8030003208DF802006946084819
:10325000FFF73AF90F20ADF8000010208DF80300B9
:1032600003208DF8020069460248FFF72DF908BDDA
:10327000000C014000100140F8B5704D704E002068
:103280007049087070490870042070490870002463
:1032900004E000206E490855601CC4B2202CF8DB05
:1032A00002216C48FFF7A6F901216A48FFF7A2F94D
:1032B000292004F06DF8012004F06AF8032004F0DE
:1032C00067F810226249002004F02CFB09200090CE
:1032D000012269461A2004F07DFB0720009001229C
:1032E00069461F2004F076FB0B20009001226946FE
:1032F0001D2004F06FFB02200090012269461B2074
:1033000004F068FB01224F49082004F063FB01220E
:103310004C491E2004F05EFB4F48007803F0E0FDAE
:103320004E48016B0020FFF7D7FE4C48416B002050
:10333000FFF712FD494A516B106BFCF7D4FF474968
:1033400048640846416C0020FFF7D0FD002401E0EE
:10335000601CC4B2202CFBDB01213E48FFF74AF978
:10336000292004F031F8012004F02EF8032004F0A5
:103370002BF8002404E0002035490855601CC4B235
:10338000202CF8DB10223249002004F0F7FA3448F0
:10339000016B0120FFF7A0FE3148416B0120FFF7D0
:1033A000DBFC2F4A516B106BFCF79DFF2C494864E6
:1033B0000846416C0120FFF799FD0020FFF79EFCB5
:1033C0000A200090012269461E2004F0D7FA00204E
:1033D000009004211A2003F01FFA00909DF80000CD
:1033E00000F0F00000900020009004211E2003F067
:1033F00077FA0090002401E0601CC4B2202CFBDBB3
:103400000120FEF73BFD002405E016480078104936
:103410000855601CC4B2202CF7DB1348007820B19B
:1034200010211248FFF7E6F803E010210F48FFF7DC
:10343000DFF80D480078FEF75BFDF8BD0000204185
:10344000000040406401002065010020660100206A
:103450002C180020001001402B000020001200203A
:10346000781200206801002046000020000C014076
:1034700000BFFEE708B501217C2002F09FFE1E2060
:10348000ADF8000010208DF8030003208DF8020035
:1034900069461D48FFF718F840F60C00ADF800002B
:1034A00004208DF8030003208DF8020069461748B8
:1034B000FFF70AF848F2E140ADF8000003208DF86C
:1034C000020004208DF8030069460F48FEF7FCFF58
:1034D0000120ADF800008DF8020004208DF80300F3
:1034E00069460948FEF7F0FF4FF4E050ADF80000E0
:1034F00001208DF8020004208DF80300694604487D
:10350000FEF7E2FF08BD0000001401400018014072
:10351000001001407CB508200090FE480078032888
:103520007ED1FD48007828B10020FB4908700120B9
:10353000FA490875FA48007810B9FA48067801E0A7
:10354000F9480678012E6CD1F848007838B1F74870
:103550000078042803D0F5480078052802D100201F
:10356000009001E008200090F048007804283ADA42
:10357000EE4800784006050EED48EC490978405CBD
:103580000190EC48007801280AD1EB48007838B95E
:103590000120EA49087001226946284604F0C2F970
:1035A000E448007858B9E4480078012807D10020A1
:1035B000E2490870012201A9284604F0B3F9DF4866
:1035C000007801280ED1DC4800780028FAD1D948CB
:1035D00000780028F6D1D9490870012201A92846AF
:1035E00004F0A0F91CE3D1480078001F4006050E46
:1035F000CE480078001FD249085C0190CD48007881
:1036000001280AD1CC48007838B90120CB4908708C
:1036100001226946284604F0B1F9C648007801E065
:10362000E8E020E058B9C4480078012807D100201C
:10363000C2490870012201A9284604F09FF9BF4839
:1036400000780128CED1BC4800780028CAD1B948FA
:1036500000780028C6D1B9490870012201A928467E
:1036600004F08CF9DCE2022EBCD1B64800780528C3
:1036700003D0B4480078042802D10020009001E073
:1036800008200090AF48007804283CDAAD48007864
:10369000092101EB4000C5B2AB48AA490978405C5A
:1036A0000190A448007801280AD1A348007838B9CD
:1036B0000120A649087001226946284604F032F923
:1036C0009C48007858B99C480078012807D1002010
:1036D0009E490870012201A9284604F023F99B485D
:1036E00000780128BED1944800780028BAD19148CA
:1036F00000780028B6D195490870012201A9284612
:1037000004F010F98CE28F480078001F082101EBCB
:103710004000C5B28B480078001F8D49085C0190BD
:1037200088480078062817D17C48407B50B19DF826
:10373000040040F0080001909DF8000040F00800EF
:10374000009009E09DF8040020F0080001909DF829
:10375000000020F0080000907A480078072817D170
:103760006E48407B50B19DF8040020F008000190A5
:103770009DF8000020F00800009009E09DF804008A
:1037800040F0080001909DF8000040F00800009013
:103790006848007801280AD16748007838B90120C4
:1037A0006A49087001226946284604F0E7F8614832
:1037B000007858B960480078012807D10020634993
:1037C0000870012201A9284604F0D8F85F48007863
:1037D000012897D158480078002893D1554800789F
:1037E00000288FD159490870012201A9284604F008
:1037F000C5F815E24A48007800287DD1494800788C
:1038000001285FD1534800784006050E48485149C9
:103810000978405C01904748007801281CD146484F
:103820000078C8B94C480078012815D100204A49D1
:1038300008700120414908704648007810B90020FE
:10384000009001E008200090012044490870012206
:103850006946284604F066F836480078A0B936482C
:103860000078012810D13C48007801280CD10020B4
:10387000394908703149087001203849087001221F
:1038800001A9284604F04EF8354800780128B0D147
:1038900000203349087004F091FD01202F49087081
:1038A000002409E02248005D01906000012201A986
:1038B00004F038F8601CC4B2042CF3DB0020284963
:1038C0000870ADE117480078022892D125480078A9
:1038D000092101EB4000C5B21B4822490978405C30
:1038E000019014480078012841D113480078D8BBD2
:1038F00019480078012800E06EE038D10020164910
:1039000008700120114908701449087001226946A5
:1039100028462AE000000020300000205413002038
:1039200003000020280000202A0000203E00002084
:103930004C01002020000020210000205D0000201C
:10394000500100203F000020540100205E000020B4
:10395000580100203A0000202200002041000020F1
:103960002C0000203C00002001E003F0DBFFAD480C
:103970000078A0B9AC480078012810D1AB48007895
:1039800001280CD10020A9490870A949087001201C
:10399000A8490870012201A9284603F0C3FFA648E0
:1039A000007801288DD104F009FD0020A24908709B
:1039B0000120A049087000240BE0A048005D0190A0
:1039C000092101EB4400012201A903F0ABFF601CB7
:1039D000C4B2042CF1DB23E19948007801285CD1C2
:1039E000984800784006050E974896490978405C4B
:1039F00001908C48007801281CD18B480078C8B908
:103A00008A480078012815D10020884908708D481F
:103A10000078012802D10820009001E000200090E9
:103A200001208A49087083490870012269462846A6
:103A300003F0A4FF7B480078A0B97B4800780128F8
:103A400010D17A48007801280CD1002077490870FD
:103A50007E490870012077490870012201A9284693
:103A600003F08CFF744800780128B4D1002072491B
:103A7000087004F0A3FC01206E490870002409E0DE
:103A80007148005D01906000012201A903F076FFFA
:103A9000601CC4B2042CF3DBC2E069480078022841
:103AA00099D16B480078082101EB4000C5B2694804
:103AB00067490978405C01906548007802281DD16B
:103AC0006548407B50B19DF8040040F0080001902B
:103AD0009DF8000040F00800009009E09DF8040007
:103AE00020F0080001909DF8000020F008000090F0
:103AF0009DF804005749564A127888545448007873
:103B000003281DD15448407B50B19DF8040020F09B
:103B1000080001909DF8000020F00800009009E0E6
:103B20009DF8040040F0080001909DF8000040F06E
:103B3000080000909DF804004649454A12788854D0
:103B400038480078012813D13748007880B93748C1
:103B5000007801280CD100203449087001203B492D
:103B600008703449087001226946284603F006FFB0
:103B70002C480078A0B92C480078012810D12B4897
:103B8000007801280CD10020284908702F490870BE
:103B9000012028490870012201A9284603F0EEFE01
:103BA0002548007801283BD104F008FC0120214978
:103BB000087000202049087000242FE02548005D8F
:103BC0000190022C01D0032C19D12348407B58B11D
:103BD0002048807840F008001E4988700846C07868
:103BE00020F00800C8700AE01A48C07840F00800C9
:103BF0001849C8700846807820F008008870154879
:103C0000005D019001200B490870082101EB440080
:103C1000012201A903F0B2FE601CC4B2042CCDDB6A
:103C20007CBD000020000020210000202200002098
:103C30005E000020410000202C00002054010020E4
:103C40002A0000203B000020500100205F000020DF
:103C50003D000020580100205413002008B5012128
:103C60007C2002F0ABFA4FF40740ADF800001020C2
:103C70008DF8030003208DF8020069461D48FEF709
:103C800023FC4FF4E360ADF8000010208DF8030032
:103C900003208DF8020069461748FEF715FCD02076
:103CA000ADF8000010208DF8030003208DF802000D
:103CB00069461248FEF708FC4FF47040ADF800006A
:103CC00010208DF8030003208DF8020069460C488F
:103CD000FEF7FAFB4FF4C060ADF8000010208DF83D
:103CE000030003208DF8020069460648FEF7ECFB4E
:103CF00008BD000000080140000C01400010014018
:103D0000001401400018014010B55D48007820B152
:103D10005C48007808B1012400E00224584800788B
:103D2000002846D058480078002842D157480088DB
:103D300028B15748007810B90020544908805348EA
:103D4000008830B95248007818B90021514803F072
:103D500075FD51480078022803D100214D4803F039
:103D60006DFD4E48006828B14948007810B9002020
:103D70004A4908604948006830B94548007818B990
:103D800000214448FDF79AFF43480078012803D1F9
:103D900000214048FDF792FF414801684148006812
:103DA000FCF7A1FA4049086000213F480068FEF78F
:103DB00097F834480078002861D03348007800280C
:103DC0005DD13A48008828B13148007810B9002008
:103DD000364908803548008830B92D48007818B930
:103DE0000021334803F02AFD2B480078022803D134
:103DF00000212F4803F022FD2E48006828B12448F6
:103E0000007810B900202B4908602A48006830B9B2
:103E10001F48007818B900212548FDF74FFF1E48BC
:103E20000078012803D100212148FDF747FF2248EF
:103E3000C07810B920480079A0B11F48007940B17E
:103E40001E48016817480068FCF74DFA1C490860D5
:103E500010E01348016813480068FCF744FA184959
:103E6000086007E01548016816480068FCF73BFA4F
:103E700013490860012112480068FEF731F810BDAF
:103E80009C0000209D0000203C010020F400002048
:103E90002D0000200012002027000020FC00002040
:103EA000B0000020B8000020D4000020F600002060
:103EB000781200200001002054130020B4000020DC
:103EC000D8000020BC00002000BFFEE710B504466B
:103ED000012C3CD13F480078002879D03E4800783A
:103EE00078B93E48007840F004003C490870084624
:103EF000007820F0080008700122082003F06AFD15
:103F00000EE03648007840F0080034490870084652
:103F1000007820F0040008700122082003F05AFD08
:103F20002D48007848B94FF480612D48FEF762FBB8
:103F300010212C48FEF75CFB4AE010212948FEF7CF
:103F400059FB4FF480612648FEF752FB40E0022CFB
:103F50003ED12548007880B32448007878B92448B9
:103F6000007840F00400224908700846007820F0EC
:103F70000800087001221E2003F02CFD0EE01C48F2
:103F8000007840F008001A4908700846007820F0D0
:103F90000400087001221E2003F01CFD1348007865
:103FA00060B901201349087081021348FEF722FB13
:103FB0004FF400710A48FEF71BFB09E04FF4007153
:103FC0000748FEF717FB4FF480610B48FEF710FB24
:103FD00010BD00009C0000200900002064010020AA
:103FE00000180140001001409D0000200E0000203C
:103FF0006501002010000020000C01407047000007
:1040000008B500214FF0006000F07AF84FF4C0606E
:1040100000F06CF814208DF8000000208DF80100ED
:104020008DF8020001208DF80300684600F026F8A4
:1040300003208DF8000001208DF8010000208DF88C
:10404000020001208DF80300684600F017F80A48C6
:10405000006840F400700849086028208DF80000CE
:1040600001208DF801008DF802008DF803006846EC
:1040700000F004F808BD000014ED00E070B5002168
:1040800000230F22C47804B3154C246804F4E064C0
:10409000C4F5E064210AC1F10403CA40447804FA7B
:1040A00003F184781440214309010E4C0678A15590
:1040B000047804F01F050124AC4005786D11AD00B3
:1040C00005F1E025C5F8004109E0047804F01F057A
:1040D0000124AC40044D0678761145F8264070BDA9
:1040E0000CED00E000E400E080E100E00249014363
:1040F000024A1160704700000000FA050CED00E074
:10410000024A0A400243024B1A60704780FFFF1FB9
:1041100008ED00E01D481E481E481F481F48204863
:10412000204821482148224822482348234824483F
:10413000244825482548264826482748274828480F
:104140002848294829482A482A482B482B482C48DF
:104150002C482D482D482E482E482F482F483048AF
:10416000304831483148324832483348334834487F
:10417000344835483548364836483748374838484F
:1041800038483948394800BF7047000070B9000806
:1041900074B900087AB900087CB9000878B9000839
:1041A0007EB9000880B9000882B9000884B9000807
:1041B00086B9000888B900088AB900088CB90008D7
:1041C0008EB9000890B9000892B9000894B90008A7
:1041D00096B9000898B900089AB900089CB9000877
:1041E0009EB90008A0B90008A2B90008A4B9000847
:1041F000A6B90008A8B90008AAB90008ACB9000817
:10420000AEB90008B0B90008B2B90008B4B90008E6
:10421000B6B90008B8B90008BAB90008BCB90008B6
:10422000BEB90008C0B90008C2B90008C6B9000884
:10423000C8B90008CAB90008CCB900088425002014
:1042400004290020D0B90008D2B90008D4B9000868
:10425000D6B90008D8B90008DAB90008DCB90008F6
:10426000DEB90008E0B90008CEB90008E2B90008DC
:104270002DE9F04105460E46144600271DB90420DD
:104280002070BDE8F08116B90C202070F9E71148C4
:10429000007810B112202070F3E72878012808D0A8
:1042A000022807D0032802D0042804D100E000BF70
:1042B00000BF00BF02E001202070E2E700BFFBF773
:1042C00053FF07466E613846FBF752FF002020700F
:1042D00000BFD6E7C501002010B500F019F801F0C5
:1042E000ADF901F0D5F901F0F5F901F077F901F038
:1042F00049F901F085FA01F0AFFA01F02BFA01F06B
:104300004FFA00F0E1FC00F009F8FFF703FF10BDE1
:104310000020014908807047A80100207047000074
:1043200010B500241A480078012830D1FBF71CFF93
:1043300004461848007820B116480078401E1549F8
:10434000087014480078F8B913480078E0B901F013
:10435000E5FA12481249097850F82100114908601D
:104360000F4800781049097888420DD00D48006840
:10437000C06B401C0B490968C8630C480068401CAE
:104380000A490860FBF70CFF2046FBF7F1FE10BD61
:10439000D2010020C5010020C60100201C1C002005
:1043A000C8010020E0010020C7010020AC0100206E
:1043B00010B500240B480078012811D1FBF7D4FE7A
:1043C00004460948007840B908480078FF2804D21C
:1043D00006480078401C054908702046FBF7C8FED7
:1043E00010BD0000D2010020C5010020C601002040
:1043F00010B5002413480078012821D1FBF7B4FE42
:10440000044611480078C0B10F480078401E0E499C
:1044100008700846007860B90C48007828B9204632
:10442000FBF7A6FE01F040FA0AE02046FBF7A0FEEB
:1044300006E02046FBF79CFE02E02046FBF798FED4
:1044400010BD0000D2010020C6010020C5010020DF
:1044500070B5054600261048007808B1002070BDF0
:10446000FBF782FE06460D480468006820B10B4841
:1044700000684068094908603046FBF779FE4CB196
:104480000320207025810020606005A06061204627
:1044900001F06AF82046E2E7C5010020B0010020E3
:1044A0003F0000002DE9F04105460E461446002766
:1044B0001DB904202070BDE8F0812878032802D0BF
:1044C00001202070F7E73248007810B102202070F8
:1044D000F1E73048007810B10D202070EBE7FBF7D2
:1044E00043FE0746288940B12889401E2881384666
:1044F000FBF73EFE00202070DDE72748006890F8BB
:10450000340040F001002449096881F8340000209B
:104510002149096881F835001F480068066328466C
:1045200000F0E4FF3846FBF723FE01F0BDF9FBF78E
:104530001BFE07461848006890F8350020B1012896
:1045400009D0022806D102E0002020700BE00E20E6
:10455000207008E000BF29460F48006800F094FF73
:104560000A20207000BF00BF00200B49096881F8B5
:1045700034000949096881F8350007490968C861AC
:104580000549096808623846FBF7F2FD00BF92E76B
:10459000C5010020C6010020D801002070B50446E6
:1045A00000250CB9042070BD2078032801D001201B
:1045B000F9E7FBF7D9FD0546A07A60B10023012297
:1045C0001946204600F018FF2846FBF7D1FD01F000
:1045D0006BF90020E7E720894FF6FF71884207D288
:1045E0002089401C20812846FBF7C2FD0020DAE725
:1045F0002846FBF7BDFD3320D5E7000010B50B487A
:10460000007890B901F08AF90948007809490870E2
:1046100009480749097850F8210008490860084608
:10462000006807490860FBF7A6FD10BDD201002015
:10463000C8010020C70100201C1C0020E001002050
:10464000D801002010B50024022000F02BFAFBF75F
:104650008BFD044600200B4908602046FBF788FDCF
:10466000642000F01FFAFBF77FFD04460548006850
:10467000054908600120054908702046FBF778FDD0
:1046800010BD0000D4010020BC010020C4010020A6
:1046900010B504462046FCF78DFE10BD2DE9FE4FF7
:1046A00006460F4690461C464FF000093F2C02D9A3
:1046B0002A20BDE8FE8FFBF757FD81461E48007893
:1046C00020B14846FBF754FD3C20F2E71B4850F868
:1046D000240060BB0120194941F824004846FBF73B
:1046E00047FD002342463946304600F02BF982460A
:1046F0000020009001900346024651460290204659
:1047000001F022F9054635B90D48007801280CD191
:1047100001F0CAF809E0FBF727FD814600200749B0
:1047200041F824004846FBF723FD2846C1E74846E8
:10473000FBF71EFD2820BCE7C50100201C1C002043
:10474000D20100202DE9F04F85B081468A4693467C
:104750001C46DDE90F78129D002003903F2C03D901
:104760002A2005B0BDE8F08FFBF7FEFC039022483D
:10477000007820B10398FBF7FBFC3C20F1E71F48D1
:1047800050F8240088BB01201C4941F824000398FC
:10479000FBF7EEFC2A464146384601F0E5F92B4688
:1047A0005A465146484600F0CDF804901198CDE99C
:1047B000008002953A4620460E9B049901F0C4F809
:1047C000064636B90E48007801280CD101F06CF885
:1047D00009E0FBF7C9FC03900020084941F82400D8
:1047E0000398FBF7C5FC3046BBE7FFE70398FBF7F0
:1047F000BFFC2820B5E70000C50100201C1C0020DC
:10480000D201002010B504462046FCF7DAFD10BDA9
:1048100010B5FCF7DCFD10BD2DE9F04105460F4653
:1048200014464FF000083F2D05D9FF2D03D02A2054
:104830002070BDE8F08117B90C202070F9E714480A
:10484000007810B112202070F3E7FBF78DFC804652
:10485000FF2D03D10F48006890F836500E4850F8ED
:1048600025602EB94046FBF783FC43202070E0E72B
:10487000012E05D14046FBF77BFC43202070D8E792
:1048800037654046FBF774FC0020207000BFD0E77E
:10489000C5010020D80100201C1C002010B5FCF729
:1048A000A2FD10BD2DE9F04706460C464FF0000A68
:1048B0003F2E04D9FF2E02D02A20BDE8F0870CB984
:1048C0000920FAE7002020606060FBF74DFC82467B
:1048D000FF2E03D11948006890F83660184850F848
:1048E000265025B95046FBF743FC4320E5E7012D50
:1048F00004D15046FBF73CFC4320DEE7287C00F067
:10490000010020B95046FBF733FC4520D5E70027CE
:10491000D5F80C90D5F808805046FBF729FC00E04C
:104920007F1C58F8041B0029FAD0B8002060A9EBBE
:104930000700800060600020BFE70000D801002071
:104940001C1C002070B5044610464FF080750560B1
:10495000051F28462C606FF00106051F28462E60B3
:104960004FF01236051F28462E604FF00336051F04
:1049700028462E604FF00236051F28462E6076101E
:10498000051F28462E60051F284629604FF0113666
:10499000051F28462E604FF01036051F28462E6052
:1049A0004FF00936051F28462E604FF00836051FC8
:1049B00028462E604FF00736051F28462E604FF020
:1049C0000636051F28462E604FF00536051F28467F
:1049D0002E604FF00436051F28462E6070BD000083
:1049E0002DE9F04105464FF000083F2D02D1472048
:1049F000BDE8F0813F2D03D3FF2D01D02A20F7E73A
:104A0000FBF7B2FB8046FF2D05D12048006890F8E7
:104A10003650012608E01D48006890F83600A8428C
:104A200001D1012600E00026194850F8254024B99C
:104A30004046FBF79DFB4820DAE7012C04D14046B5
:104A4000FBF796FB4320D3E794F838701148C05D1C
:104A500094F8391088430F49C8550846C05D30B9ED
:104A600094F83A100C48007888430B49087094F881
:104A7000340040F0080084F834004046FBF778FB2F
:104A8000012E01D100F010FF0020B1E7D801002075
:104A90001C1C0020CA010020C901002010B5FCF731
:104AA000A3FC10BD70B5054600261748007800B17C
:104AB00070BD1648007800B1FAE71DB3FBF754FB50
:104AC00006461348006890F838401248005D1049C7
:104AD000096891F8391088430E4908550846005D69
:104AE00040B90B48006890F83A100B4800788843AA
:104AF000094908700648006805633046FBF738FB33
:104B000000F0D2FE00BFD3E7C5010020C60100209F
:104B1000D8010020CA010020C90100202DE9F04180
:104B200007460D4616461C461B48007810B1552016
:104B3000BDE8F0811948007808B13220F8E727B9BC
:104B40001DB916B90CB95420F2E73B2D01D95120FB
:104B5000EEE73B2E01D95220EAE7B4F57A7F01D384
:104B60005320E5E74FF47A7060434FF47A71B0FB5D
:104B7000F1F14FF461607843C5EB051200EB820060
:104B8000304400EB4002C2EBC01001EBC0084046CD
:104B9000FFF788FF0020CBE7C5010020C6010020F9
:104BA00070B5002600F072F8FBF7DEFA06463148D1
:104BB0000068401C2F4908603046FBF7D9FA2E48A0
:104BC0000078012853D12D48007820B1012804D065
:104BD000022809D103E001250BE0002509E00125A9
:104BE00001202649087004E00125002023490870AF
:104BF00000BF00BF05B970BD2148046833E0FBF772
:104C0000B3FA0646206B50B3206B401E2063206B26
:104C100028BB94F8340000F0370040B114F8340F8A
:104C200000F0C800207001206070343C02E00020D9
:104C300084F8350094F8340000F0080078B938346E
:104C4000A0781049097808430E49087020780E4969
:104C5000085C6178084314F838190B4A50546469A9
:104C60003046FBF785FA94F836003F28C7D100BFDD
:104C7000C1E70000F4010020D2010020E80100207B
:104C8000E4010020C9010020CA01002010B5FCF792
:104C9000AFFB07480088401C05490880084600888B
:104CA000642803D30020088000F004F810BD000041
:104CB000A801002010B503480068FFF76FFC044608
:104CC000204610BD04020020F8B54FF4207128489A
:104CD00000F08CFD4021274800F088FD002514E0FD
:104CE000681C86B205EB8500214901EBC00406EB88
:104CF000860001EBC00764202070002084F82500A6
:104D0000E7601DA02062681C85B20F2DE8D305EB7B
:104D10008500174901EBC00464202070002084F84E
:104D20002500E06014A020620020144908601449A6
:104D300008801020134908800D481349086001209D
:104D4000FFF786FB114908600020FFF781FB10493F
:104D500008606A460FA10D480068FFF789FA6A46A5
:104D600011A10B480068FFF783FA00F027F8F8BD9F
:104D700084250020042900203F000000FC010020C1
:104D8000FA010020F80100200802002000020020A3
:104D90000402002075432F4F532D494920546D7252
:104DA0004C6F636B0000000075432F4F532D494932
:104DB00020546D725369676E616C000000B587B056
:104DC0000320002140220A4BCDE90132CDE9031036
:104DD0004FF6FD703D23064AFC3200900548FFF770
:104DE000B1FC06AA04A13D20FFF716FD07B000BDE7
:104DF00004280020754E000875432F4F532D494954
:104E000020546D720000000070B50B46032580F839
:104E10002550012B05D1154EC569366835444561CD
:104E20000CE085692DB9114EC56936683544456178
:104E300004E00E4E8569366835444561057D05F010
:104E400007040B4D05EBC4010D682DB90860002562
:104E5000C56001258D8006E00A680860C2601061A7
:104E60008D886D1C8D800025056170BDFC010020C2
:104E70000429002008B500BF00BF6A4600211A4877
:104E80000068FFF70FFBFFF793FA18480068401C13
:104E9000164908600846007800F00708144800EB3F
:104EA000C8073C681AE0E6681049606909688842EA
:104EB00013D1204600F01EF894F82400022804D1F3
:104EC00001212046FFF7A0FF02E0022084F8250020
:104ED000656815B12046A168A8473446002CE2D188
:104EE000FFF786FAC9E7000004020020FC01002059
:104EF0000429002030B5057D05F007040D4D05EBB4
:104F0000C4031D68854205D1C168196039B1002507
:104F10000D6104E00169C268CA6002B11161012536
:104F200080F825500025C56005619D886D1E9D8017
:104F300030BD000004290020002002490870024909
:104F400008707047150200201602002010B50446B4
:104F500036480068401C3549086035480078062806
:104F60005DD2DFE800F0030B152C3F4FED2C04D190
:104F700001202F490870FFF7DFFF54E08C2C03D18C
:104F800002202B49087002E00020294908704AE0FD
:104F90000CB9012000E00020802C01D9012100E0A3
:104FA0000021084318B100202149087006E021487B
:104FB00004702148047003201D49087033E0204626
:104FC00000F046F81B48007820441A4908701A4837
:104FD0000078401EC0B21849087010B90420144966
:104FE000087020E0134800782044124908700846F1
:104FF000007818B905200E49087002E000200C491D
:10500000087010E08D2C06D10C480088401C0B491C
:10501000088000F015F800200549087003E0002022
:105020000349087000BF00BF10BD00001802002037
:105030001202002014020020130200201C02002093
:1050400010B502480068FFF7A9FA10BD3C02002025
:1050500006490978802907D204490A780978491C49
:10506000024B197002498854704700001502002055
:105070004829002070B5FBF7CDF8054614480078A4
:10508000401C134908702846FBF7C8F840F2255128
:10509000104802F078FB58B10E4802F0C3FBC4B2CE
:1050A0002046FFF753FF40F225510A4802F05CFB0F
:1050B00040F22771074802F066FB30B100F060F85B
:1050C00040F22771034802F04FFBFFF729F970BD4A
:1050D000C50100200038014010B5044600F020F85A
:1050E00060640020206410BD10B500F019F804467B
:1050F00007480068006C06490968496C611A084451
:1051000003490968086403480068446410BD00004E
:10511000D8010020E001002010B500F001F810BD1A
:105120002DE9F0410027FBF71FF8074600F018F8BB
:1051300084B209480088201A86B2074804800748CC
:105140000068304405490860084605683846FBF7A2
:105150000FF82846BDE8F081100200200C02002064
:1051600010B54FF0804002F0F8FA10BD10B50446BB
:105170002146024802F05BFB10BD000000380140F0
:1051800010B57348007809287ED2DFE800F00525C5
:10519000394AB6C36D8394006E480088002803DC4A
:1051A0006D480088002810DD8C20FFF7DFFF6B487A
:1051B0000068401C69490860012069490870644919
:1051C000087000206749088005E0002064490870E5
:1051D00000F0D4F8B9E0B8E0ED20FFF7C7FF5F4872
:1051E0000068401C5D4908605A480088002803DDBB
:1051F00002205749087002E0062055490870A4E0D3
:1052000054490878FFF7B2FF54480068401C5349DE
:10521000086003204E4908704E48007852490870D3
:1052200093E052484F490988445C2046FFF79EFFAF
:105230004A480068401C494908604B4800782044AF
:105240004949087047480088401C4649088008467C
:10525000008840490988884205DB04203C490870E1
:1052600000203C49088070E03B490978491CC8B2DD
:10527000FFF77CFF39480068401C38490860072068
:1052800033490870344800E057E00078401C364944
:1052900008705AE04320FFF769FF30480068401C5F
:1052A0002E49086008202A4908702F4800784330AA
:1052B0002D49087049E02E482A490988445C204657
:1052C000FFF754FF25480068401C24490860264821
:1052D000007820442449087022480088401C80B28D
:1052E000204908801C490988884205DB04201849A8
:1052F000087000201849088027E01B480078FFF755
:1053000035FF16480068401C144908600520104904
:1053100008701AE08D20FFF729FF10480068401C34
:105320000E49086000200A49087012490880124896
:105330000088401C1049088007E0002004490870DC
:105340000749087000F01AF800BF00BF10BD000048
:10535000230200201E020020320200202C02002026
:10536000240200202002002022020020C829002060
:10537000482A0020260200203002002010B500221A
:1053800040F22771014802F028FA10BD00380140B0
:1053900030B5164800684FF47A72B0FBF2F1B1F103
:1053A000807F01D301201DE021F07F40401E4FF09F
:1053B000E022506150170F22002807DA13071D0E54
:1053C0000B4B00F00F04241F1D5503E013071C0EA8
:1053D000084B1C5400BF00204FF0E02290610720D2
:1053E0001061002008B100BFFEE730BD940100202D
:1053F00018ED00E000E400E02DE9F04F05460F460F
:1054000090469946A87A1C490E5C05F10B00805D18
:1054100011F800B00BEBC60000F0FF0A174850F877
:105420002A4000202434E0602760207C20EA080025
:10543000207484F81190207C243C00F0080068B9A6
:1054400094F83A000E49097808430D4908700D4850
:10545000805D94F8391008430A498855294620464A
:1054600000F012F8206A20B12046216A00F021F8ED
:10547000E5615046BDE8F08FE4B900081C1C00202F
:10548000C9010020CA01002010B590F8382001F1B0
:105490000B039B5C90F83940A34301F10B04A35428
:1054A00023469B5C23B98B7A90F83A40A3438B72D6
:1054B00010BDF0B5024612F8384F95785678383A54
:1054C0000B4618680FE000F10B073F5DB74300F192
:1054D0000B0C0CF8047067463F5D17B9877AAF4331
:1054E00087721B1D18680028EDD1F0BD10B51B4A4E
:1054F0001268D061194A126892F8383000F10B0234
:10550000D25C164B1B6893F839301A43134B1B6857
:1055100093F8384000F10B031A55827A0F4B1B6841
:1055200093F83A301A4382720C4A126892F8381093
:105530000B4A525C094B1B6893F839309A43084B6D
:105540005A541A46525C42B9044A126892F83A30E8
:10555000044A12789A43034B1A7010BDD8010020F8
:10556000CA010020C9010020014600228A720020E1
:1055700005E0002301F10B021354421CD0B20828AD
:10558000F7D370472DE9F0415021114800F02EF972
:1055900000250DE0681C86B20D4800EB051400EBF9
:1055A00006170020207067600AA0E060681C85B2C2
:1055B000042DEFD3064800EB051400202070606036
:1055C00004A0E060024804490860BDE8F0810000E2
:1055D0004C1A00203F000000B401002070B54FF4C9
:1055E000F071134800F002F9002411E0601C85B24C
:1055F00004EB44000E4901EBC00305EB450001EB51
:10560000C006002018705E600AA05861601C84B259
:10561000132CEBD304EB4400054901EBC00300203D
:105620001870586003A0586108460349086070BDAF
:105630006C1800203F000000B001002000200A4943
:1056400008600A4908700A4908700A4908700A493E
:1056500008700A4908600A4908600A4908600A494E
:1056600008600A4908707047F4010020C501002055
:10567000C6010020D3010020D2010020AC0100208F
:10568000D4010020C0010020BC010020C401002082
:1056900000210A4A1170002004E00021084A115438
:1056A000411CC8B20828F8D30021064A1170064AE6
:1056B0001170064A1160064A11607047C901002046
:1056C000CA010020C7010020C8010020E00100201D
:1056D000D801002070B54FF4F261194800F086F847
:1056E0004FF48071174800F081F8002413E0601C2B
:1056F000C5B204EB440000EBC400114901EBC00348
:1057000005EB450000EBC50001EBC0065E610EA095
:105710001865601CC4B2152CE9D304EB440000EBFF
:10572000C400074901EBC0030020586106A01865BA
:1057300000200649086002480549086070BD000065
:105740001C1D00201C1C00203F000000E401002064
:10575000DC01002000B587B00320002120220A4B85
:10576000CDE90132CDE903104FF6FF703F23064A21
:105770007C3200900548FEF7E5FF06AA04A13F2011
:10578000FFF74AF807B000BD9C1B00207D5A0008B7
:1057900075432F4F532D49492049646C6500000023
:1057A00000B587B00320002140220A4BCDE9013229
:1057B000CDE903104FF6FE703E23064AFC320090FE
:1057C0000548FEF7BFFF06AA04A13E20FFF724F814
:1057D00007B000BD9C1A0020A55A000875432F4F42
:1057E000532D4949205374617400000004E00022E5
:1057F00000F8012B4A1E91B20029F8D17047000031
:1058000070B578211148FFF7F1FF00240EE004EB9A
:1058100044000E4901EBC005601C00EB400001EBA9
:10582000C00068600AA06861601C84B2042CEED3DA
:1058300004EB4400054901EBC0050020686004A0AA
:10584000686108460349086070BD0000AC24002070
:105850003F000000EC0100202DE9F04160211048DC
:10586000FFF7C4FF00240DE0601C86B204EB440087
:105870000B4901EBC00506EB460001EBC0072F60AA
:10588000601C84B2032CEFD304EB4400044901EB09
:10589000C00500202860084602490860BDE8F08184
:1058A00024250020F001002010B50024FAF75CFC4C
:1058B000044613480078F8B912480078E0B900F0BF
:1058C0002DF811481149097850F821001049086055
:1058D0000E4800780F49097888420DD00C480068BE
:1058E000C06B401C0A490968C8630B480068401C2B
:1058F00009490860FAF74FFC2046FAF739FC10BD59
:10590000C5010020C60100201C1C0020C801002089
:10591000E0010020C7010020AC0100200649074A31
:105920001278885C0649095C034A515C01EBC001AE
:10593000044A117070470000E4B90008C901002052
:10594000CA010020C80100202DE9F84F05460F4686
:1059500090469946DDE90AAB00200090FAF704FC76
:1059600000903F480468002C75D01C3454F8080C93
:105970003B4908600098FAF7FBFB44F81C7CA576CD
:10598000002020766076606144F818BC44F810ACC2
:1059900044F8148C0C9824F80C0C24F80A9C002071
:1059A000E077E810207705F00700E076217F0120FE
:1059B0008840A077E17E0120884060770020206049
:1059C0006060E060A0602062A0626062E0622063CC
:1059D00024A060631C3C002606E0002104F1540072
:1059E00040F82610701CC6B2002EF6D02046FEF7F6
:1059F0004FFE2046FEF706FFFAF7B6FB00901A4866
:105A000040F825401948006860610020A0611748EF
:105A1000006810B115480068846114480460383487
:105A2000A078134909780843114908702078114972
:105A3000085C6178084314F838190E4A50540E482F
:105A40000078401C0C4908700098FAF791FB002080
:105A5000BDE8F88FFFE70098FAF78AFB4220F7E7E6
:105A6000DC0100203F0000001C1C0020E40100209D
:105A7000C9010020CA010020D3010020002400BF7A
:105A800000BFFAF771FB044605480068401C044952
:105A900008602046FAF76CFBFEF7BAFEF1E700005B
:105AA000D4010020002400BF02E0C820FEF7FAFF66
:105AB000194800780028F8D0184800686421B0FB25
:105AC000F1F0164908600846006828B9002014491A
:105AD0000870FF20FEF784FF00BFFAF745FB04467D
